:10800000B0160120B5CC00004B920100A1CC0000BD
:10801000A1CC0000A1CC0000A1CC0000A1CC0000AC
:10802000000000000000000000000000A1CE0000E1
:10803000A1CC00000000000025CE0000A1CC000073
:10804000A9D00000A9D00000A9D00000A9D000004C
:10805000A9D00000A9D00000A9D00000A9D000003C
:10806000A9D00000A9D00000A9D00000A9D000002C
:10807000A9D00000A9D00000A9D00000A9D000001C
:10808000A9D00000A9D00000A9D00000A9D000000C
:10809000A9D00000A9D00000A9D00000A9D00000FC
:1080A000A9D00000A9D00000A9D00000A9D00000EC
:1080B000A9D00000A9D00000A9D00000A9D00000DC
:1080C000A9D00000A9D00000A9D00000A9D00000CC
:1080D000A9D00000A9D00000A9D00000A9D00000BC
:1080E000A9D00000A9D00000A9D00000A9D00000AC
:1080F000A9D00000A9D00000A9D00000A9D000009C
:10810000A9D00000A9D00000A9D00000A9D000008B
:10811000A9D00000A9D00000A9D00000A9D000007B
:10812000A9D00000A9D00000A9D00000A9D000006B
:10813000A9D00000A9D00000A9D00000A9D000005B
:04814000A9D00000C2
:04814400FFFFFFFF3B
:1081480081F0004102E000BF83F0004330B54FEA00
:1081580041044FEA430594EA050F08BF90EA020F6D
:108168001FBF54EA000C55EA020C7FEA645C7FEA00
:10817800655C00F0E2804FEA5454D4EB5555B8BF23
:108188006D420CDD2C4480EA020281EA030382EA94
:10819800000083EA010180EA020281EA0303362D26
:1081A80088BF30BD11F0004F4FEA01314FF4801CF9
:1081B8004CEA113102D0404261EB410113F0004F0B
:1081C8004FEA03334CEA133302D0524263EB4303C2
:1081D80094EA050F00F0A780A4F10104D5F1200E60
:1081E8000DDB02FA0EFC22FA05F2801841F10001BB
:1081F80003FA0EF2801843FA05F359410EE0A5F18F
:1082080020050EF1200E012A03FA0EFC28BF4CF0BF
:10821800020C43FA05F3C01851EBE37101F0004575
:1082280007D54FF0000EDCF1000C7EEB00006EEB82
:108238000101B1F5801F1BD3B1F5001F0CD349080C
:108248005FEA30004FEA3C0C04F101044FEA445263
:1082580012F5800F80F09A80BCF1004F08BF5FEAEA
:10826800500C50F1000041EB045141EA050130BDCA
:108278005FEA4C0C404141EB0101013C28BFB1F5DC
:10828800801FE9D291F0000F04BF01460020B1FA27
:1082980081F308BF2033A3F10B03B3F120020CDAFA
:1082A8000C3208DD02F1140CC2F10C0201FA0CF0D8
:1082B80021FA02F10CE002F11402D8BFC2F1200C3D
:1082C80001FA02F120FA0CFCDCBF41EA0C019040F3
:1082D800E41AA2BF01EB0451294330BD6FEA04043C
:1082E8001F3C1CDA0C340EDC04F11404C4F1200227
:1082F80020FA04F001FA02F340EA030021FA04F339
:1083080045EA030130BDC4F10C04C4F1200220FA8F
:1083180002F001FA04F340EA0300294630BD21FACD
:1083280004F0294630BD94F0000F83F4801306BF93
:1083380081F480110134013D4EE77FEA645C18BF87
:108348007FEA655C29D094EA050F08BF90EA020F1E
:1083580005D054EA000C04BF1946104630BD91EA16
:10836800030F1EBF0021002030BD5FEA545C05D119
:108378004000494128BF41F0004130BD14F5800458
:108388003CBF01F5801130BD01F0004545F0FE41CC
:1083980041F470014FF0000030BD7FEA645C1ABF01
:1083A800194610467FEA655C1CBF0B46024650EA38
:1083B800013406BF52EA033591EA030F41F4002164
:1083C80030BD00BF90F0000F04BF0021704730B5EA
:1083D8004FF4806404F132044FF000054FF00001BF
:1083E80050E700BF90F0000F04BF0021704730B580
:1083F8004FF4806404F1320410F0004548BF404255
:108408004FF000013EE700BF42004FEAE2014FEAA9
:1084180031014FEA02701FBF12F07F4393F07F4F84
:1084280081F06051704732F07F4208BF704793F087
:108438007F4F04BF41F40021704730B54FF460749A
:1084480001F0004521F000411CE700BF50EA01029D
:1084580008BF704730B54FF000050AE050EA010246
:1084680008BF704730B511F0004502D5404261EBB6
:1084780041014FF4806404F132045FEA915C3FF4F7
:10848800D8AE4FF003025FEADC0C18BF03325FEA94
:10849800DC0C18BF033202EBDC02C2F1200300FA45
:1084A80003FC20FA02F001FA03FE40EA0E0021FA6A
:1084B80002F11444BDE600BF70B54FF0FF0C4CF458
:1084C800E06C1CEA11541DBF1CEA135594EA0C0F0A
:1084D80095EA0C0F00F0DEF82C4481EA030621EA45
:1084E8004C5123EA4C5350EA013518BF52EA033580
:1084F80041F4801143F4801338D0A0FB02CE4FF032
:108508000005E1FB02E506F00042E0FB03E54FF061
:108518000006E1FB03569CF0000F18BF4EF0010E59
:10852800A4F1FF04B6F5007F64F5407404D25FEA55
:108538004E0E6D4146EB060642EAC62141EA555108
:108548004FEAC52040EA5E504FEACE2EB4F1FD0C4A
:1085580088BFBCF5E06F1ED8BEF1004F08BF5FEAC8
:10856800500E50F1000041EB045170BD06F000467A
:1085780046EA010140EA020081EA0301B4EB5C0427
:10858800C2BFD4EB0C0541EA045170BD41F480111F
:108598004FF0000E013C00F3AB8014F1360FDEBF44
:1085A800002001F0004170BDC4F10004203C35DA20
:1085B8000C341BDC04F11404C4F1200500FA05F3A3
:1085C80020FA04F001FA05F240EA020001F0004244
:1085D80021F0004110EBD37021FA04F642EB0601BA
:1085E8005EEA430E08BF20EAD37070BDC4F10C04E4
:1085F800C4F1200500FA04F320FA05F001FA04F2A8
:1086080040EA020001F0004110EBD37041F1000193
:108618005EEA430E08BF20EAD37070BDC4F120059E
:1086280000FA05F24EEA020E20FA04F301FA05F206
:1086380043EA020321FA04F001F0004121FA04F2AE
:1086480020EA020000EBD3705EEA430E08BF20EA7E
:10865800D37070BD94F0000F0FD101F000464000B8
:1086680041EB010111F4801F08BF013CF7D041EA3A
:10867800060195F0000F18BF704703F0004652003E
:1086880043EB030313F4801F08BF013DF7D043EA0F
:108698000603704794EA0C0F0CEA135518BF95EAC5
:1086A8000C0F0CD050EA410618BF52EA4306D1D14C
:1086B80081EA030101F000414FF0000070BD50EA6B
:1086C800410606BF1046194652EA430619D094EAF5
:1086D8000C0F02D150EA013613D195EA0C0F05D1DF
:1086E80052EA03361CBF104619460AD181EA030133
:1086F80001F0004141F0FE4141F470014FF00000EB
:1087080070BD41F0FE4141F4780170BD70B54FF085
:10871800FF0C4CF4E06C1CEA11541DBF1CEA135505
:1087280094EA0C0F95EA0C0F00F0A7F8A4EB0504E7
:1087380081EA030E52EA03354FEA013100F08880DE
:108748004FEA03334FF0805545EA131343EA1263A7
:108758004FEA022245EA111545EA10654FEA00265C
:108768000EF000419D4208BF964244F1FD0404F515
:10877800407402D25B084FEA3202B61A65EB030571
:108788005B084FEA32024FF480104FF4002CB6EB2E
:10879800020E75EB030E22BFB61A754640EA0C00AE
:1087A8005B084FEA3202B6EB020E75EB030E22BFEE
:1087B800B61A754640EA5C005B084FEA3202B6EB2F
:1087C800020E75EB030E22BFB61A754640EA9C00EE
:1087D8005B084FEA3202B6EB020E75EB030E22BFBE
:1087E800B61A754640EADC0055EA060E18D04FEA7C
:1087F800051545EA16754FEA06164FEAC30343EA1C
:1088080052734FEAC2025FEA1C1CC0D111F4801FE8
:108818000BD141EA00014FF000004FF0004CB6E7E1
:1088280011F4801F04BF01430020B4F1FD0C88BF80
:10883800BCF5E06F3FF6AFAEB5EB030C04BFB6EB8B
:10884800020C5FEA500C50F1000041EB045170BD7E
:108858000EF0004E4EEA113114EB5C04C2BFD4EBAB
:108868000C0541EA045170BD41F480114FF0000E2F
:10887800013C90E645EA060E8DE60CEA135594EAAB
:108888000C0F08BF95EA0C0F3FF43BAF94EA0C0FAE
:108898000AD150EA01347FF434AF95EA0C0F7FF423
:1088A80025AF104619462CE795EA0C0F06D152EA77
:1088B80003353FF4FDAE1046194622E750EA41065B
:1088C80018BF52EA43067FF4C5AE50EA41047FF46C
:1088D8000DAF52EA43057FF4EBAE12E74FF0FF3CD1
:1088E80006E000BF4FF0010C02E000BF4FF0010CA2
:1088F8004DF804CD4FEA410C7FEA6C5C4FEA430C1B
:1089080018BF7FEA6C5C1BD001B050EA410C0CBF69
:1089180052EA430C91EA030F02BF90EA020F0020CB
:10892800704710F1000F91EA030F58BF994208BF32
:1089380090422CBFD8176FEAE37040F001007047EF
:108948004FEA410C7FEA6C5C02D150EA013C07D146
:108958004FEA430C7FEA6C5CD6D152EA033CD3D091
:108968005DF8040B704700BF8446104662468C468B
:108978001946634600E000BF01B5FFF7B7FF0028BE
:1089880048BF10F1000F01BD4DF808EDFFF7F4FFE7
:108998000CBF012000205DF808FB00BF4DF808ED72
:1089A800FFF7EAFF34BF012000205DF808FB00BF95
:1089B8004DF808EDFFF7E0FF94BF012000205DF8B7
:1089C80008FB00BF4DF808EDFFF7CEFF94BF01206C
:1089D80000205DF808FB00BF4DF808EDFFF7C4FF65
:1089E80034BF012000205DF808FB00BF4FEA410CAE
:1089F8007FEA6C5C02D150EA013C0AD14FEA430C91
:108A08007FEA6C5C02D152EA033C02D14FF00000CD
:108A180070474FF0010070474FEA410212F500120B
:108A280015D211D56FF47873B3EB625212D94FEAAD
:108A3800C12343F0004343EA505311F0004F23FA97
:108A480002F018BF404270474FF00000704750EAEC
:108A5800013005D111F0004008BF6FF000407047A9
:108A68004FF00000704700BF4FEA4102B2F1E04307
:108A780024BFB3F5001CDCF1FE5C0DD901F0004CFD
:108A88004FEAC0024CEA5070B2F1004F40EB83004D
:108A980008BF20F00100704711F0804F21D113F179
:108AA8003872BCBF01F00040704741F480114FEAB2
:108AB8005252C2F11802C2F1200C10FA0CF320FA3B
:108AC80002F018BF40F001004FEAC1234FEAD32358
:108AD80003FA0CFC40EA0C0023FA02F34FEA4303C2
:108AE800CCE77FEA625307D150EA01331EBF4FF04B
:108AF800FE4040F44000704701F0004040F0FE4066
:108B080040F40000704700BF53B94AB9002908BFB4
:108B180000281CBF4FF0FF314FF0FF3000F00CB8B9
:108B2800ADF1080C6DE904CE00F008F8DDF804E0BA
:108B3800DDE9022304B07047704700BF2DE9F04714
:108B480086468C460846089E154674461946002BEC
:108B580040F0C1808542B2FA82F245D94AB1C2F1E9
:108B6800200300FA02FC954094402EFA03F343EAEE
:108B78000C0C4FEA154EA8B2230CBCFBFEF80EFBFA
:108B880018CC08FB00F943EA0C43994528D9EB189F
:108B980008F1FF3704D2994502D9A8F102072B44FE
:108BA800A3EB0903A4B2B3FBFEFC0EFB1C330CFBC6
:108BB80000F044EA0344A04214D92C190CF1FF3305
:108BC80004D2A04202D9ACF102032C44241A43EA8D
:108BD80007401EB1D440002334607360BDE8F087BD
:108BE8004746DDE76346F1E792BB431B01214FEAA5
:108BF800154EAFB2200CB3FBFEFC0EFB1C330CFB76
:108C080007F840EA0343984561D9EB180CF1FF30A7
:108C180004D2984502D9ACF102002B44A3EB080317
:108C2800A4B2B3FBFEFC0EFB1C330CFB07F744EAB3
:108C38000344A7424DD92C190CF1FF3304D2A742A3
:108C480002D9ACF102032C44E41B43EA0040C0E71C
:108C5800C2F120039540944020FA03F12EFA03F361
:108C68004FEA154E9040AFB20343B1FBFEFC0EFB3A
:108C78001C10190C0CFB07F841EA0041884522D961
:108C880069180CF1FF3004D2884502D9ACF1020012
:108C98002944A1EB08019BB2B1FBFEFC0EFB1C11A1
:108CA8000CFB07F743EA01439F420ED9EB180CF17E
:108CB800FF3104D29F4202D9ACF102012B44DB1BE5
:108CC80041EA004193E76046E3E76146F7E760461B
:108CD800A4E76346B8E7834206D916B900210846D7
:108CE8007CE7C6E900E0F9E7B3FA83F78FB9834276
:108CF80001D3724508D8BEEB020460EB03030120E0
:108D08009C461EB9002169E73846FAE7C6E9004CD7
:108D1800F8E7C7F1200CBB400EFA07F522FA0CF46D
:108D28002EFA0CF1BA401C4320FA0CF3B8404FEA73
:108D3800144901431FFA84FEB3FBF9F809FB183004
:108D48000B0C08FB0EFA43EA00439A4540D9E31896
:108D580008F1FF3004D29A4502D9A8F10200234451
:108D6800A3EB0A0389B2B3FBF9F809FB183308FB34
:108D78000EFE41EA03418E452CD9611808F1FF33F4
:108D880004D28E4502D9A8F10203214443EA0040E7
:108D9800A1EB0E01A0FB02984145CE46434602D303
:108DA80006D14D4504D20138B9EB020E68EB040335
:108DB800002EA7D0B5EB0E0261EB030101FA0CFC03
:108DC80022FA07F3F9404CEA0303C6E9003199E7B0
:108DD8004046C5E74346D9E710F8012B11F8013B97
:108DE800012A28BF9A42F7D0D01A7047034613F8D1
:108DF800012B002AFBD1181A013870470000000027
:108E0800002330B585B06C46ADF8083040F20673E3
:108E180084E80300ADF80C302046012302AA03A918
:108E28000EF0E5FE30B19DF80C20BDF804101A488C
:108E38000FF01DFA012320460DF109020DF10D0175
:108E48000EF0D5FE30B19DF80D20BDF80410124883
:108E58000FF00DFA9DF809309DF8080000EB03208B
:108E6800B0F5004FA8BFA0F58050FFF7BBFA08A3E4
:108E7800D3E90023FFF720FB044608200D4613F032
:108E880000F8C0E9004505B030BD00BFAFF3008071
:108E98007B14AE47E17A843F34D80100000000001B
:108EA8002DE9F04F824616461C4600259FB00391D7
:108EB800307810B9284600F089BD731C2528069320
:108EC80006D00399D0470028C0F2808501351FE2FB
:108ED8001822002110A813F02EF87378252B00F023
:108EE800BC80002398469E469C461846711C0F4637
:108EF80011F8012B2B2A00F0E38000F2DA80202AF7
:108F080000F0E180232A00F0E1802BB19DF8483081
:108F180043F040038DF84830B8F1000F05D09DF8B4
:108F2800483043F020038DF84830BEF1000F05D0DB
:108F38009DF8483043F010038DF84830BCF1000F1D
:108F480005D09DF8483043F008038DF8483028B123
:108F58009DF8483043F004038DF848309DF84830B8
:108F680003F04401442903D16FF386138DF8483088
:108F78009DF848302A2A43F080030E978DF8483030
:108F880040F0A9809DF8493043F001038DF849303D
:108F98007B1C1A782E2A0CBF012100219DF849203C
:108FA80061F341028DF849200CD15A1C0E925A786F
:108FB8002A2A40F0A0809DF84920023342F004029A
:108FC8008DF849201A786C2A00F0C18000F2A3803D
:108FD800682A00F0A9806A2A00F0C2804C2A00F0B2
:108FE800C78013F8012B782A06938DF84B2000F2DE
:108FF80009816D2A00F2C980692A00F20381572A83
:1090080000F2E280412A04D0A2F14503022B00F2CB
:10901800F98004219DF84A3002F0DF02A2F14108EC
:1090280061F30203D8F100029DF8491042EB0802EF
:1090380062F3C7110A068DF84A308DF84910CBB291
:1090480000F11F8103F07802182A40F009816FF3BC
:10905800C6038DF849300023F8E0B21C06928DF85B
:109068004B309DF849309DF84A20DF0702F0070091
:1090780040F1098154F8041B0029049108DA9DF88D
:10908800481041F004018DF84810049949420491B0
:10909800590740F1008154F8047B002F80F2FF80CB
:1090A8009DF849306FF341038DF849304FF0FF3791
:1090B800F5E02D2A0DD0302A7FF427AF012316E7DB
:1090C8004FF0010C13E74FF0010E10E74FF00108C5
:1090D8000DE701200BE70EA802F036FC0E9BBB4201
:1090E8003FF457AF9DF848201390C00F60F341023A
:1090F8008DF848204DE70EA802F026FC9DF8483070
:109108001490C3F3400242EAD07262F341038DF82F
:1091180048300E9B56E7742A26D07A2A7FF461AF2E
:1091280006219DF849200CE05A78682A9DF84920C4
:1091380006D1012161F3C6028DF84920023350E7B8
:10914800022161F3C6028DF84920013349E75A78B4
:109158006C2A9DF8492001D10421EBE70321F0E7AF
:1091680005219DF84920ECE707219DF84920E8E70B
:10917800BDF8482022F4F04222F0020242F4804274
:1091880042F00202ADF84820DFE76E3AD3B201227E
:109198009A4040F282431A429DF8493039D112F080
:1091A800240F61D1D1072DD503219DF84A2003F062
:1091B8007803A3F1400C61F30202DCF100038DF89F
:1091C8004A2043EB0C0341E00120A2F15801C9B247
:1091D80000FA01F111F4624F7FF41BAF40F601036E
:1091E80019429DF849301AD111F4043F0AD09DF86C
:1091F8004A2060F3020203F07803402B8DF84A20DE
:109208007FF429AF9DF8483043F001038DF84830CA
:1092180021E702219DF84A2061F30202EBE70220D0
:109228009DF84A1003F0780360F30201402B8DF893
:109238004A1002BF9DF8481041F001018DF848100E
:10924800632A7FF408AF003B18BF01239DF848202C
:10925800C2F340010B4363F341028DF8482000E755
:1092680013F0380FCED1F6E603219DF84A2013F00B
:10927800780F61F3020214BF012300238DF84A20FE
:10928800E4E70123E2E79DF948100029ACBF4FF05D
:10929800FF311399FBE69F077FF508AF149F002362
:1092A8000428CDE913339DF8493007D1980705D430
:1092B8009DF949100029ACBF06270D2702F00702C7
:1092C800012AC3F3C30333D1DA1E042A04D8DFE822
:1092D80002F02146462121002268012B4FEAE27163
:1092E800CDE910211CD19DF94020D117CDE91021DD
:1092F80004349DF848209107079250D032465046D2
:10930800069B03990FF015F80028C0F25F83054407
:10931800069ECDE554F8042BD117CDE91021E8E7D6
:10932800022BE5D111B242F3C032CDE91012DFE7CA
:10933800022A24D1DA1E042A04D8DFE802F0181021
:1093480010181800012B4FF0000154F8042B14D00A
:10935800022BCDE91021CCD192B21092C9E7073483
:1093680024F00704F4E80201CDE91001C1E754F83C
:10937800042B109200221192BBE7D2B2CDE7042A47
:1093880008D1073424F00704D4E900010834CDE9F2
:109398001001AEE7032AACD154F8042BDDE79DF8A1
:1093A8004BB0BBF1780FB3D8BBF1570F49D8BBF11D
:1093B800250F00F09180BBF1240FA9D9BBF1410F13
:1093C80003D0ABF14503022BA2D8DDE91013002B23
:1093D800C0F23781079A160700F13681C2F30019E7
:1093E8004FEA4919C3F30A50C3F31303002840F0A6
:1093F8002E8151EA030614BF01260026DB0243EA48
:109408005153C902BBF1460F40EA010E43EAE07C22
:1094180008BF4FF0660B5EEA0C0CCDE90C1300F0A8
:109428009C81002E40F04A810D9BA0F2FE3843F04B
:1094380000430D930020DDE90C1306464FF0050CA0
:1094480056E1ABF1580120293FF662AF01A050F870
:1094580021F000BFE995000019930000199300005E
:109468001993000019930000199300001993000044
:109478001993000019930000D3930000199300007A
:109488006D95000081950000D3930000D3930000F0
:10949800D3930000199300008195000019930000F0
:1094A80019930000199300001993000023960000F7
:1094B800E9950000EF95000019930000199300004A
:1094C800E794000019930000E99500001993000043
:1094D80019930000E995000058460399F2E4002F1B
:1094E800109E3BDB3946304612F0CCFE002E3FF48E
:1094F8000FAF4FF000093718BB1B9DF84A2012F038
:109508001001059100F05782023312F04002DDF895
:109518004C80089218BF149A434418BF9B18049AA9
:10952800CDF81C80002A40F36182D31A04939DF879
:1095380048305807C3F3800B00F15882590640F1B0
:109548004882B9F1000F07D048460399D047002850
:10955800C0F23C82D946013530233BE23046FFF762
:1095680045FCC6E7109B4FF000098DF85C300DF103
:109578005D07012317AEC0E7079B1A0754BFC3F363
:1095880000194FF02B09DDE9102358BF4FEA49199C
:10959800002B06DA4FF02D09524263EB4303CDE965
:1095A8001023DDE910010DF17503009312AA17AB22
:1095B80002F0E0F90646002F0CDB9DF848200DF17B
:1095C80075039B1B6FF386129F428DF8482001D9C3
:1095D800FB1A1393002E3FF49BAE0DF175075BE069
:1095E8004FF00009DDE71098002800F0DF810DF149
:1095F80075030093002117AB12AA02F0BBF9BDF85E
:109608004A30064603F0EF0343F4F04343F01003F7
:109618004FF00009ADF84A30CDE7109A072B3FF616
:1096280077AEDFE803F00C04060C08080C0C157084
:109638006EE615806CE6EB17C2E9005368E6156024
:1096480066E64FF02D09CDE64FF02B09CAE640F249
:10965800FF76B0422FD1A0480BF10102D2B2825C52
:109668000B4302F003021ED1012A0BBF49236923D1
:109678004E216E210CBF462266228DF85C309DF883
:1096880048308DF85D106FF386138DF85E208DF8E5
:1096980048300DF15F0717AEBB1BB9F1000F3FF45F
:1096A8002CAF013329E7012A15BF6E234E23612110
:1096B80041211A46E1E70026A0E6013849185B4136
:1096C800002BFADACDE90C13AEE6490841EAC3717A
:1096D8005B08B3F1333F404608F10108F5D200F1C9
:1096E800020801200CFB03FEA1FB0C13013E73448E
:1096F80018F1020FE9DB08B1CDE90C13DDE90C31F3
:10970800B8F1000F2CDCC8F10400A0F1200C08F11E
:109718001C08C34001FA08F821FA0CFCC1400BF000
:10972800DF0043EA0803472843EA0C0338D1F01C5A
:1097380001DBB7422ADAABF10202002F5FFA82FBA3
:109748007BDD9DF84800013F820676D43A1E18BF9B
:109758000122059207F101082CE04FF0000869E6A4
:10976800023341F100010CA808F1FF380136CDE9B8
:109778000C310EF0AFFDDDE90C31DB184941002951
:1097880008F1FF38F9DACDE90C31B7E79DF8482040
:10979800BF1B90064FD43A1E18BF0122059204E061
:1097A8000022BBF1660F0592D4D117EB06084FF0E3
:1097B800660B44D4B8F1100FA8BF4FF010089FED06
:1097C800447B10208DED0E7B0B90DDE90E02B8F185
:1097D800000F37D1C01842EB0103B3F1805F41D2CB
:1097E800CDE90C03079BBBF1660F03F0200340F0A3
:1097F800BC80002E41DC30218DF85C10002B6DD12F
:10980800002F40F3B4812E238DF85D3086B173426A
:10981800BB42A8BF3B46002B1393A7EB0307D4BF5B
:10982800002301239DF84A1063F345118DF84A106F
:109838000DF15E0839E00022B0E7002289E74FF019
:109848000008BCE7400840EAC2705208CDE90E02A1
:109858000EA8CDE9083108F1FF380EF03BFDDDE92F
:109868000831B2E7400840EAC3705B08CDE90C0351
:109878000CA80EF02FFD0136B4E70DF15C080B992A
:10988800002909DD0BA90CA807930EF03BFD013E4A
:10989800079B08F8010BF2D113969BB9002F40F3F0
:1098A80064812E2108F8011B0026002F1FDD0B9B69
:1098B800002B1CDD0BA90CA80EF024FD013F08F8B5
:1098C800010BF2E72E2308F8013BEDE7AFF3008028
:1098D80000000000000000082CF701002E238DF87E
:1098E8005D30002EA4D0002F91DC0DF15E08059BA1
:1098F800002B4ED1149747460BF0DF03452B23D19D
:10990800002EBABF76422D232B23632EC8BF6421B5
:109918007B70C4BFB6FBF1F301FB13664FF00A017D
:10992800C8BF03F13000B6FBF1F3D2BFBA1CFA1C72
:10993800B87087F800B0174603F1300001FB1363D5
:10994800303307F8020B5370139B002B2CDC149B4D
:10995800002BD4BF002301239DF84A2063F386120D
:1099680000238DF84A203B7095E60BA90CA80793B5
:109978000EF0C8FC079B30288DF85C0018BF06F174
:10998800FF3613B9002F40F3F2802E238DF85D3097
:109998004EE7474617F8013C08F1FF38302BF8D05E
:1099A8002E2B08BF4746A7E70123D5E7714F81460D
:1099B80005237E1FA1E5110748BF0133A5E5184619
:1099C80009930399D0470028099B05DA1FB0BDE821
:1099D800F08F2023DDF810B05A46002A0BF1FF3B28
:1099E800EDDC049BCDF810B02B449D1AB9F1000FA3
:1099F80005D048460399D0470028E7DB0135089B86
:109A0800002B77D09DF94930002B28DB3346DFF84F
:109A1800689118789B4619F80020013352073FD403
:109A28009DF84A30AE1B98065E4407D44246002A89
:109A380008F1FF383BDC079B33449E1A9BF8000073
:109A48002E280AD10399D0470028BFDBB8F1000FB0
:109A580006F1010631DC0BF1010B5D4638E0B14639
:109A680099F80000C846702809F1010913D1AE1B06
:109A7800149D46443544AB1B002B33DC3B46424621
:109A8800504603990EF055FC00289FDB3044049E95
:109A98000546064464E00399D0470028E0DA95E7D4
:109AA80005930399D0470028059BB2DA8EE730204A
:109AB8000399D0470028B9DA88E730200399D047BE
:109AC80008F1FF38C0E70399D0470028FFF67EAFBA
:109AD8002878A84619F8003001355907F3D4A6EBC1
:109AE8000B06C5E730200399D0470028FFF66EAF74
:109AF8000136C0E79DF84A30DA0601D41B0706D5BF
:109B080030200399D0470028FFF660AF0135059B48
:109B18003BB103999DF84B00D0470028FFF656AF9C
:109B28000135A84406E030200399D0470028FFF605
:109B38004DAF0135A8EB0503002BF4DC3B4632465C
:109B4800504603990EF0F5FB0028FFF63FAF284476
:109B58009DE720200399D0470028FFF637AF01354D
:109B6800731B002BF5DCFFF7D3BB1E46BFE60DF1D8
:109B78005D08BCE626D901002DF7010000000000B1
:109B88002DE9F0412DED028B1F46002386B0CDE96B
:109B9800043304230D46904606460193002800F03E
:109BA800BD80002900F0BA80062104A810F034F91D
:109BB800044658B1034601215D4A5E4810F07BFA1D
:109BC800204606B0BDEC028BBDE8F081014604AA30
:109BD800304610F0FCF8044648B10346564A0121C5
:109BE800544810F068FA04A810F040F9E8E76A460B
:109BF800012104A810F0ECF9044610B103464F4ABD
:109C0800EDE7009BB3B1042B1DD0052B0CBF092336
:109C1800FF232B70032101AB02AA04A810F004FA59
:109C2800064690B10346464A0121424810F043FADD
:109C38003446D8E7DFED437A0023C5ED017A2B706F
:109C4800C5ED027ACFE70723E3E7019B002BF1D0AC
:109C580018336B4403F8100C02A9404612F0E5FAD9
:109C68000222314602A80CF0B3FF2B78C2B2092BAE
:109C780006D10F2A25D96FF015042346324AAEE7DC
:109C88000F2AF8D8072B24D19FED308A304B33F8B0
:109C98001200E0B1FEF7A6FB23A3D3E90023FEF7E9
:109CA8000BFCFEF7E1FE042168600DEB010302AA3C
:109CB80004A8019110F0B8F9064668B10346254A90
:109CC800B2E7254B9FED258A33F81200E1E72448D7
:109CD800E9E76FF07F04D0E7019B02A918336B44D2
:109CE80003F8100C384612F0A0FA0222314602A8F6
:109CF8000CF06EFFC3B20F2B07D90121194A0D488A
:109D080010F0D9F96FF015046DE70133DBB207EEF7
:109D1800903AF8EEE77A67EE887A91E76FF01504E3
:109D28004EE700BFAFF300807B14AE47E17A2440D2
:109D38007FE901001CCC0100A8E90100D1E901007C
:109D4800F3E90100000000001FEA01000AD7A33F61
:109D580024D4010043EA010004D401000AD72340B7
:109D68000AD7A3406EEA01002DE9F04F476A97B081
:109D78008346209E08910C92129355EC104B8DED62
:109D8800000B7FB910200CF017F90246CBF824001D
:109D980020B9A74BEA21A7480DF0A4FBC0E9017739
:109DA8000760C760DBF82430196859B15A68012385
:109DB800584693404A608B600CF0A6FFDBF82430CD
:109DC80000221A602B1EB7BF23F000430023012294
:109DD8000193A8BF3360019F974BB8BF3260BB4364
:109DE80019D142F20F73129A1360C7F31303234376
:109DF80000F0DB85219B53B9904B21E0904B0393F6
:109E08000833219A1360039817B0BDE8F08F8B4B85
:109E180003930333F5E79DED007B0022002351EC0B
:109E2800170B8DED0A7BFEF7AFFD804650B101237D
:109E3800129A1360219B13B1824B219A1360824BB3
:109E48000393E0E7C7F30A5614AA15A958469DEDEF
:109E58000A0B0DF0E1F90290002E76D00B9BA6F2CA
:109E6800FF36CDF84C80C3F3130343F07F53DDE98D
:109E78000A0143F4401319460022744BFEF764F9B3
:109E880065A3D3E90023FEF717FB65A3D3E90023F5
:109E9800FEF75CF904460D463046FEF7A3FA62A3C6
:109EA800D3E90023FEF708FB02460B462046294665
:109EB800FEF74CF904460D46FEF7AEFD00220746B4
:109EC800002320462946FEF769FD40B13846FEF7D3
:109ED80089FA22462B46FEF757FD00B9013F162F97
:109EE80052D85B4B03EBC703DDE90A01D3E9002332
:109EF800FEF754FD002849D0013F00231193149B1D
:109F08009B1B5A1E4CBFC3F101030023079245BF98
:109F18000693002306930793002F39DB079B1097BE
:109F28003B44079300230993089B092B66D8052B0C
:109F3800C5BF043B002401240893089B023B032B64
:109F480067D8DFE803F02D3A3859DDE914631E4479
:109F580006F23243202BC9BFC3F14003C3F12003EB
:109F68009F4006F21243D8BF04FA03F006F1FF3609
:109F7800C4BF24FA03F347EA0300FEF723FA0122D9
:109F8800A1F1F873139276E70123B7E71190B6E7CA
:109F9800069BDB1B06937B42099300231093C3E7C0
:109FA80000230D930C9B002B56DC012399461A467F
:109FB80004930C920CE00123F3E700230D930C9B10
:109FC800FB1803F1010904934B46012BB8BF012389
:109FD800DBF824000021042202F114059D423FD938
:109FE800416058460CF050FE039000283BD1194BB5
:109FF80002464FF4D571CEE60123DFE701240023A2
:10A008000D9408934FF0FF330022994604931223CE
:10A01800CFE701230D93F5E761436F63A787D23F2D
:10A02800B3C8608B288AC63FFB799F501344D33F3F
:10A0380068F801007FF801000000F07F64F8010073
:10A048005BF8010020E901001FE901000000F83F6A
:10A05800C0CC0100DBF801000C9B99460493B7E7DC
:10A0680001315200B8E7DBF82430B9F10E0F039A3A
:10A078001A606FD8002C6DD0002F36DD07F00F0264
:10A08800A04BF8054FEA271403EBC20393ED007BBE
:10A098008DED0E7B17D59C4B04F00F044FF0030891
:10A0A800D3E90823DDE90A01FEF730FBCDE9000119
:10A0B800954D5CB9DDE90E23DDE90001FEF726FBCD
:10A0C800CDE900012BE04FF00208F1E7E10709D5DF
:10A0D80008F10108DDE90E01D5E90023FEF7ECF9E6
:10A0E800CDE90E0164100835E3E700F007817C42F2
:10A0F800844B854D4FF0020804F00F02241103EB46
:10A10800C203DDE90A01D3E90023FEF7D5F90023EC
:10A11800CDE90001002C40F0E580002BD0D1119B47
:10A12800DDE90045002B00F04C810022774B2046EA
:10A138002946FEF733FC002800F04381B9F1000FEF
:10A1480000F03F81049B002B00F3E480DDE90A3432
:10A15800CDE90034159B002B02DB0E2F40F3428221
:10A168000D9A002A40F06782099C0025DDF81880C6
:10A17800B8F1000F0DD0079B002B0ADD4345069A66
:10A18800A8BF4346D21AA8EB03080692079AD31A27
:10A198000793099B0BB30D9B002B00F0A682002CA4
:10A1A80000F0A1822946224658460CF0D7FE029AB2
:10A1B8000146054658460CF027FE029906465846C1
:10A1C8000CF0A2FD099B1B1B099300F09182099AD0
:10A1D800314658460CF0C2FE0290012158460CF058
:10A1E800FDFD109B0446002B00F084821A460146B0
:10A1F80058460CF0B3FE089B0446012B03DC009B79
:10A20800002B00F07C820026236904EB8303186985
:10A2180012F024F9C0F120001096079B184410F0A2
:10A228001F0000F09182C0F12003042B40F38182CB
:10A23800C0F11C00069B034480440693079B03441B
:10A248000793069B002B05DD1A46029958460CF029
:10A25800DFFE0290079B002B05DD21461A46584673
:10A268000CF0D6FE0446119B002B00F076822146A6
:10A27800029812F042F9002880F26F8200230A2225
:10A28800029958460CF062FD0D9B7E1E0290002B31
:10A2980000F05C82002329460A2258460CF056FD3D
:10A2A800049B0546002B03DC089B022B00F35E820F
:10A2B800B8F1000F05DD2946424658460CF0A8FEC5
:10A2C8000546109B002B00F0D082696858460CF0B8
:10A2D800DBFC0746002840F07F820D4B024640F227
:10A2E800EA2158E5E20706D508F10108D5E9002377
:10A2F800FEF7E2F80123641008350BE74FF0020877
:10A308000DE700BFC0CC010098CC01000000F03F71
:10A31800DBF8010020460022AC4B2946FEF7CCF8BA
:10A328007E1E08F10108049CCDE900014046FEF7B5
:10A3380059F8DDE90023FEF7BFF8A54B0022FDF729
:10A3480005FFA1F15073CDE90E010F93002C3BD10D
:10A358000022A04BDDE90001FDF7F6FE02460B46A0
:10A36800CDE90023DDE90E23FEF736FB002840F097
:10A378005781DDE90E2101F10043DDE90001FEF717
:10A388000DFB00283FF4E2AE002425460C9BDDF8C7
:10A398000CA0DE434FF00008214658460CF0B4FCF0
:10A3A800002D00F0A980B8F1000F05D0A84503D012
:10A3B800414658460CF0A8FC294658460CF0A4FC27
:10A3C8009AE03E464C46B1E7834B03EBC40353E99E
:10A3D8000201039B1C440D9B002B4AD002460B46EE
:10A3E80000207E49FEF792F9DDE90E23FDF7ACFE69
:10A3F800DDF80CA0CDE90E01DDE90001FEF70CFB4C
:10A408000546FDF7EFFF024630350B46DDE9000152
:10A41800FDF79AFE0AF8015B02460B46CDE90001FA
:10A42800DDE90E01FEF7D8FA002865D100206C4955
:10A43800DDE90023FDF788FE02460B46DDE90E0143
:10A44800FEF7CAFA002840F00D81A24500F0EA8024
:10A4580000225E4BDDE90E01FEF72EF800225B4B71
:10A46800CDE90E01DDE90001FEF726F8CDE900018E
:10A47800C2E7DDE90E23FEF71FF8A046DDF80CA0C1
:10A48800CDE90E01DDE90001FEF7C6FA0546FDF744
:10A49800A9FF024630350B46DDE90001FDF754FE01
:10A4A8000AF8015B02460B46A245CDE900234FF0AE
:10A4B800000223D1494BDDE90E01FDF747FE0246B4
:10A4C8000B46DDE90001FEF787FA002840F0CA8054
:10A4D80000204249DDE90E23FDF736FE02460B4611
:10A4E800DDE90001FEF75AFA70B1C24608F1FF38FB
:10A4F8001AF8013C302BF8D0374655E0334BFDF7BE
:10A50800DBFFCDE90001BDE7DDE90A34CDE9003420
:10A51800159B002BFFF628AE0E2F3FF725AE2E4BCE
:10A5280003EBC70393ED007B0C9B002B8DED047BA5
:10A5380002DAB9F1000F64D0DDF80CA0DDE90045BE
:10A54800DDE9042320462946FEF7E0F8FEF764FA21
:10A558000646FDF747FFDDE90423FDF7ADFF024698
:10A56800204606F130040B462946FDF7EDFD0AF8B2
:10A57800014B039C02460B46AAEB0404A14540F09C
:10A588008280FDF7E3FD04460D46DDE90423FEF76E
:10A5980023FA002865D120462946DDE90423FEF781
:10A5A800F3F908B1F3075CD4029958460CF0ACFBF8
:10A5B800002301378AF80030129B1F60219B002B73
:10A5C8003FF421ACC3F800A01DE400BF0000244004
:10A5D80000001C4000001440C0CC01000000E03F17
:10A5E8000000F03FA24B03EBC70393ED007B0C9BED
:10A5F800002B8DED047B9FDAB9F1000F9CDC7FF412
:10A60800C3AE00229B4BDDE90401FDF755FFDDE9F0
:10A618000023FEF7D7F9044600287FF4B5AE3E467E
:10A628002546B4E0DDE90A34CDE90034159B002B5A
:10A6380001DB0E2FD6DD089A012A36DC139A82B385
:10A6480003F23343099CDDF81880069A0121584625
:10A658001A440692079A1A4407920CF0BFFB054663
:10A6680086E53E4653469A4613F8012D392A06D107
:10A67800039A9A42F7D13022039901360A701A7860
:10A6880001321A7038E700227B4BFDF715FF0022D4
:10A69800002304460D46FEF777F900283FF450AF33
:10A6A80082E7149BC3F13603CCE709F1FF34099B19
:10A6B800A34208DBB9F1000FA3EB04040EDBDDF8BD
:10A6C80018804B46C1E7099B109AE31A0994DDF8F4
:10A6D800188000241A444B461092B6E7069BA3EB59
:10A6E80009080023B1E7029E71E5099A029970E50D
:10A6F800029672E5089B012B17DC009BABB9019B06
:10A70800C3F313039BB9019B23F00046360D3605AE
:10A7180036B1069B012601330693079B0133079345
:10A72800109B002B7FF470AD1096012075E5002674
:10A73800F6E73FF486AD1C33069A1A44984406920D
:10A74800079A1A4407927CE50346F4E7049B002B1A
:10A758002BDC089B022B09DC27E0B9F1000F1DDC7C
:10A76800089B022B1ADD3E46CDF81090049B002B67
:10A778007FF40CAE2146052258460CF0E7FA014654
:10A788000446029811F0B9FE00287FF7FFADDDF806
:10A798000CA0312301360AF8013BFBE50D9B3E4630
:10A7A800CDF81090002B7FF483AD039F21460298CB
:10A7B80011F0B5FD039B00F13009049A07F8019BDD
:10A7C800FB1A9A4240F3CB8000230A22029958468A
:10A7D8000CF0BCFA0290E9E72A6905F10C010C308B
:10A7E8000232920011F080FB0122394658460CF0E3
:10A7F8000FFC039BA846054603F1010ADDE9032384
:10A8080013440793009B03F0010309930AF1FF33F4
:10A8180021460298049311F082FD4146069000F10A
:10A828003009029811F069FE2A4621460746584623
:10A838000CF05AFCC268014602B358460CF064FAA0
:10A84800002F3ADA0122029958460CF0E1FB214622
:10A85800029011F052FE002803DC29D119F0010FF3
:10A8680026D0B9F1390F1DD132E02846C1E700BF23
:10A87800C0CC010000001440000024400A90029857
:10A8880011F03BFE0A990C9058460CF03DFA0C9AD0
:10A898005ABB089B53B9099B43B9B9F1390F17D073
:10A8A800002F05DD069B03F1310901E0002F2ADAAC
:10A8B800DDF810A00AF8019B6EE5089B3B4304D124
:10A8C800009B03F00103002BBCD0B9F1390F36D13E
:10A8D800049F392307F8013BBA46013F1AF8013CA7
:10A8E800392B5AD001333B7056E5002F06DB089B05
:10A8F8003B4306D1009B03F0010313B9002AA1DCF6
:10A90800D6E7002AE1DC079B57460AF8019C534525
:10A918002ED000230A22029958460CF017FAA845AF
:10A9280002904FF000034FF00A02414658460BD1FF
:10A938000CF00CFA804605460AF1010A66E7DDF8D4
:10A9480010A009F10109B5E70CF000FA2946804684
:10A9580000230A2258460CF0F9F90546ECE7049B57
:10A968004FF00008002BCCBF1F460127039B1F4454
:10A978000122029958460CF04BFB2146029011F037
:10A98800BCFD0028A8DC02D119F0010FA4D1BA46F9
:10A9980017F8013D302BFAD0FEE4039BBB429BD154
:10A9A8003123039A01361370F6E4219B002B7FF4C0
:10A9B80025AA014BFFF744BA5BF80100CA0716D570
:10A9C800C30714D51F4BDFED207A93ED021A31EE41
:10A9D800271AD3ED031A83ED021A71EEE71A93EDE5
:10A9E800000AD3ED010AC3ED031A00F08DB98A07F6
:10A9F8000FD583070DD5134BDFED137A93ED021AAC
:10AA080031EE271AD3ED031A83ED021A71EEA71A55
:10AA1800E5E74A0709D5430707D50A4BDFED0A7A68
:10AA280093ED021A31EE671AD3E70A0709D503072F
:10AA380007D5044BDFED047A93ED021A31EE671A5D
:10AA4800E0E7704780C500208FC2F53C2DE9F74F3D
:10AA580004F010FE20B10121214A22480EF052F8DC
:10AA6800214804F037FE20B10121204A1D480EF08C
:10AA780049F81F4F1F4E97E8030000F037FA96E891
:10AA8800030000F059FADFF87090DFF8708097E85B
:10AA98000300FEF7B5F90546D0E90001FDF7E4FF2C
:10AAA800C9F8000096E8030000F084FAD5E900AB85
:10AAB8000446B0F90430B0F90220B0F9001040465D
:10AAC800CDE900AB0DF0D3FB204611F0D3F92846B1
:10AAD80011F0D0F900214FF4A4700AF05FFFD6E717
:10AAE8004AD40100CCCB0100C5A900006FD40100F5
:10AAF80090CD010088CD010080C5002098D40100C8
:10AB08002DE9F0432DED068BC9B0E84602AF88B0B9
:10AB18000646F0EE409AB0EE609AF0EE418AB0EE4A
:10AB2800618A87ED000AC7ED010A87ED021AC7EDB1
:10AB3800031A02AC9FED66AA70EE0A7A654B17EE0F
:10AB4800900A6361FDF760FC4FF004092546C4E9EB
:10AB5800060145F8109F00232A464FF403515E482A
:10AB680001F0ECFA79EE0A7A5C4B17EE900A636111
:10AB7800FDF74AFCC4F81090C4E9060100232A46F0
:10AB88004FF40351544801F0D9FA78EE8A7A544BBD
:10AB980017EE900A6361FDF737FCC4F81090C4E91A
:10ABA800060100232A464FF403514B4801F0C6FA28
:10ABB80078EE0A7A4B4B17EE900A6361FDF724FC96
:10ABC800C4F81090C4E9060100232A464FF4035143
:10ABD800414801F0B3FA07F15002C5461446424B0A
:10ABE80003F1280C154618685968083303C56345EE
:10ABF8002A46F7D118689B889A22AB8028600021E2
:10AC080007F17E0011F097F919EE900AFDF7FCFBA9
:10AC1800364ACDE900010E2107F110000DF034FB92
:10AC280019EE100AFDF7F0FB304ACDE900010E21BC
:10AC380007F120000DF028FB18EE900AFDF7E4FB61
:10AC48002B4ACDE900010E2107F130000DF01CFB65
:10AC580018EE100AFDF7D8FB254ACDE900010E21B0
:10AC680007F140000DF010FB2046224911F0C1FA0F
:10AC780007F11001204611F0BCFA20461E4911F0D8
:10AC8800B8FA07F12001204611F0B3FA20461B4913
:10AC980011F0AFFA07F13001204611F0AAFA204668
:10ACA800174911F0A6FA07F14001204611F0A1FA60
:10ACB8002046144911F09DFA2146304611F0B5FAA4
:10ACC800002007F58E77BD46BDEC068BBDE8F08306
:10ACD80000000000CED40100BCCB0100E2D401008A
:10ACE800F6D401000AD5010066D50100F0D40100B0
:10ACF80004D501001ED5010030D501003ED5010064
:10AD08004FD5010061D50100F0B591B08DED060A6F
:10AD1800CDED070A8DED081ACDED091A0CF05DFF8F
:10AD28005E4E02270025308001F0D4FC01230490F8
:10AD38004FF4A062CDE902675949019700950CA824
:10AD48000EF089F9041E08DA2346564A01215648AE
:10AD58000CF041FF204611B0F0BD1B230B21534AD4
:10AD68000CA80EF0C6F9041E02DA2346504AEDE795
:10AD780001230C210DF12A020CA88DF82A500EF09F
:10AD8800B8F9042340F20B118DF82B300DF12B028A
:10AD980001230CA80EF0ADF9041E02DA2346454A39
:10ADA800D4E703233946444A0BA80BF023FD0BA82C
:10ADB800FEF71CF840F20F1183B20BAA0CA80EF094
:10ADC80098F9041E02DA23463C4ABFE73C48FEF7DE
:10ADD8000DF840F2171183B2394A0CA80EF089F920
:10ADE800041E02DA2346374AB0E70CF0F6FE0921C2
:10ADF800C3B2354A35480BF0FDFC3448FDF7F6FF81
:10AE080040F21B1183B2314A0CA80EF072F9041EED
:10AE180002DA23462E4A99E70CA80EF0FBF9041E25
:10AE280002DA23462B4A91E79DED060ADDED070A73
:10AE38009DED081ADDED091A2748FFF761FE26483F
:10AE4800FDF7D4FF244982B20CA80EF0EDF9041ED8
:10AE580002DA2346214A79E7214B0C991868BDF894
:10AE680034202B46CDE900550EF0A7FA00280CDA5D
:10AE78000EF09DFA012103681A4A0B480CF0ABFE4C
:10AE88000EF095FA0468644264E703213388164A91
:10AE980005480CF0A0FE2C465CE700BF24DE00202D
:10AEA80037DE002094D50100BCCB0100B5D60100E7
:10AEB80058D7010086D701006ED60100EED50100F3
:10AEC80014C900201AD60100B3DA01002EDE0020D2
:10AED80045D60100D1D6010037E30020F5D60100A0
:10AEE80070D5002012D70100B1D7010030B585B068
:10AEF8006C46054684E8030010F0AFFB28B92968C2
:10AF08000B480DF0B4F905B030BD40F204432046BB
:10AF180003A9ADF80C300CF082FE0028F3D09DF8A0
:10AF28000C20BDF8041003480DF0A1F9EBE700BFB1
:10AF3800E3D70100FED7010030B587B06C4605465F
:10AF480084E8030010F089FB28B9296817480DF038
:10AF58008EF907B030BD40F61303204603A9ADF8BB
:10AF68000C300CF05CFE38B19DF80C20BDF80410D4
:10AF78000F480DF07CF9ECE746F21403204604A9CB
:10AF8800ADF810300CF04BFE10B19DF81020EDE735
:10AF980040F21563204605A9ADF814300CF03FFEC9
:10AFA8000028D6D09DF81420E0E700BFE3D70100C1
:10AFB800FED701000023F0B587B06C460493ADF8C6
:10AFC80014308DF81630402384E803008DF80F30D4
:10AFD8002046072304AA0DF10F010CF008FE30B13A
:10AFE800BDF804101D480DF10F020DF040F99DF851
:10AFF80012409DF8112004F00F0302EB03229DF884
:10B0080013309DF8151004F0F004120104EB03242A
:10B018009DF8143017B201F00F0203EB02231B0155
:10B028001DB29DF8163001F0F00101EB0321082054
:10B038000EB210F026FF3A1EB8BF0F3224B212111A
:10B048000280221EB8BF0F322B1EB8BF0F33121159
:10B058001B1142808380C68007B0F0BD34D8010040
:10B068002DE9F04F91B0009302F004030293C2F36C
:10B07800C2030133840705460E46DDF86890039243
:10B08800059340F0BB81041D30B1072909D86FF042
:10B098001B0011B0BDE8F08F01F00706341DC6F1A2
:10B0A8000806009B4FF000084FF0040A591E4FF0A5
:10B0B800FF3347460193C3465346CDF810800DB180
:10B0C800009820600598002800F3E8809848009AC6
:10B0D800824203D397488242C0F0E080039AA4EBEF
:10B0E800050E92074FEA9E0000F103810F2F00F230
:10B0F800B180002D00F0058107F140020DEB020C34
:10B10800019A0CF8200C0CF8102C049801300490CB
:10B11800E7E07A285DD84B280ED8472859D829283F
:10B128002DD8252852D054D820287AD02338D0F1C9
:10B13800000B4BEB000B74E04C382E2849D8DFE8A5
:10B1480000F07048484848484848484848484B48EC
:10B158004848484848484859484B4B595959704BF2
:10B168006D487048184B184848827F4B48484B48F0
:10B178007F0000204FF0000B4FF0040A38E0012256
:10B188002A38C0B202FA00F010EA0E0F49D110F0C6
:10B19800625C2FD110EA020B43D06046013C544454
:10B1A800B4FBFAF40AFB04F4002D61D0A3EB050C00
:10B1B800A444B4453FF66BAF002868D1042B47D1AF
:10B1C80059F8043B2360042304342AE0019A013A25
:10B1D80001924FF0000B24E011F8010C6C2834D1D7
:10B1E800002011F8023C83466C2BC5D14FF0080AA9
:10B1F8005346D3E709F1070929F00709073424F072
:10B208000704F9E802AB35B106982044B0423FF68E
:10B218003EAFC4E900AB4FF0000B08344FF0080A0A
:10B22800534611F8010F002878D0BBF1000F7FF4C6
:10B2380070AF2528F5D14FF0010B019B0133019325
:10B248004FF0040AECE7584694E700208346A5E748
:10B25800082B02D06FF015001BE709F1070929F048
:10B268000709B9EC027B84ED007B08230834D8E792
:10B2780068B9042B02D109F10409A4E7082BE9D124
:10B2880009F1070929F0070909F10809EDE7059807
:10B298000138059059F8040B009010E7039A9007BD
:10B2A80020D54FF0010CA4EB050E4FEA9E00BEF529
:10B2B800007FCFD20F2FCDD8F5B107F140020DEBAB
:10B2C800020E019AC0B20EF8200C0EF8102CBCF138
:10B2D800000F3FF41AAF60F07F000EF8200C08F161
:10B2E80001080137C5F108024FF6DA7E04340692E8
:10B2F80097E74FF0000CDAE7BCF1000F01D00136F8
:10B30800EFE7029A0236002AEBD10098CDE9063120
:10B31800FDF76CFDDDE906310644E2E7631BB3F592
:10B32800806F97D245B9A6F10804E018B1E600BFCE
:10B3380094C80100CCF90100029A9B0828602B7080
:10B348009DF81030C2B1EB7085F80280B8F1000F9B
:10B3580005D0002208A8C5F1010C97420ED14FF084
:10B36800000AC5F101030DF1200901930DF1300B1D
:10B37800574512D1601B8CE66B70E5E710F8013B6E
:10B38800190608D504EB0C0EB64503F07F033FF60B
:10B398007EAE04F8013B0132DFE7B8F1000F03D0BD
:10B3A80099F90020002A17DB029BD3B11AF80B2069
:10B3B80004F8012B0022019B98182044B0423FF664
:10B3C80066AE99F80000009904F8010B2046039234
:10B3D80010F08AFD039A14440AF1010A09F10109DF
:10B3E800C6E799F8002055F822300093029B009890
:10B3F80045F82230FDF7FAFC421CDCE76FF00D003F
:10B4080047E600BF2DE9F04F97B000AFD7F880B0FE
:10B418003B62CBF3C0030446894690F802A0FA6267
:10B42800BB6141B9457800780AEB800020444D455E
:10B4380017D8A0EB0409E378FB61BAF1000F02D03A
:10B448001BF0010F16D1FB6953BBFB6A1BB14946C0
:10B4580020463A6A98474D4628465C37BD46BDE8BF
:10B46800F08F461C3046FDF7C1FC0130304409F12D
:10B478000109DCE7626823787A62FA6A99007961DF
:10B4880004EB8301002A40F001810E464FF00008CA
:10B498004D4601EB0A094E454CD101EB0A0610E076
:10B4A8001BF0020FD1D023789A007A61626804EB0E
:10B4B80083017A62FA6A002A77D14D46904601EBF9
:10B4C8000A061BF0050F0CBF02230123FB62FB6970
:10B4D80006EB430A0BF00203BB625645BCD016F8D4
:10B4E800021B16F8013C54F82390AF4B994502D340
:10B4F800AE4B994536D3BB69002B40D0786A0CF027
:10B508007CFE00283BD0E9468AB06A46A84B5361C6
:10B518007B6AC2E906314FF400731384A54B42F8E5
:10B52800103F00234FF41251A34800F007FE023DDC
:10B53800CD46D2E716F8013BF96254F82300FDF72F
:10B5480055FCD7F88430F96A01304BB1D7F8883008
:10B5580098453EBFD7F8843023F8180008F1010851
:10B56800054498E7BB6923B1786A0CF046FE0028C9
:10B57800C9D11BF0010F05D1FB6AED1AADE7BB6A13
:10B58800002BAAD04846FDF731FCD7F8843053B1D8
:10B59800D7F8883098453FBFD7F88420431C22F855
:10B5A800183008F10108054497E7BAF1000F73D085
:10B5B8001BF0040673D0D046002607F14800524617
:10B5C8003B61B96210F090FCB96A3B6901EB0A0271
:10B5D800BA62FA69F9695200FA60BA6A02EB410282
:10B5E8003A610BF00202BA603A69B96A8A4258D1E4
:10B5F80062781BF0020F18BF00217A6208BF4FEA79
:10B608005801B2181BF0010FD2B240F09F801BF016
:10B61800040F14BF40460020BB616270A070E17047
:10B6280020463A6A7969FB6A9847051EFFF614AF07
:10B63800BB69414623707B6A3A6A6370FB6984F888
:10B6480002A0E37007F14800FB6A9847B0F10008D0
:10B65800C0F2B4807B69A9EB0A01C91AFB683A6A8F
:10B66800C91AD7E90A0398470028C0F2A9804FF001
:10B67800000BA84408EB000507F1380AB34567D367
:10B6880000213A6A0846FB6A9847E5E656464FF0B5
:10B69800000807F1380092E75646D04696E7B046CC
:10B6A80094E7BA6A12F8021B12F8015CBA6254F8FD
:10B6B80025003D4A904202D33C4A90421ED3BA69C3
:10B6C80032B1786A7B600CF098FD7B6800288BD1DA
:10B6D800BA6802BB08F1280207F1300C08F1010032
:10B6E800944407F1580208F1020852FA80F00CF865
:10B6F800101C5FFA88F800F8105C75E7BA693AB16F
:10B70800786A7B600CF079FD7B6800287FF46CAF69
:10B718001BF0010F09D006F1280207F13000711C57
:10B72800161806F8205CCEB25EE71BF0040F3FF453
:10B738005BAF08F1280207F1300008F1010102EBC4
:10B74800000808F8105C5FFA81F84DE7002063E70D
:10B758001BF80A3054F8239087F83730D7F884302C
:10B76800FBB133F81B8001213A6AFB6A07F1370005
:10B778009847002824DB0544B8F1000F06D1484655
:10B78800FDF734FB00F101081FFA88F841464846E6
:10B798003A6AFB6A9847002812DB05440BF1010B53
:10B7A8006CE7D7F88480DEE794C80100CCF9010083
:10B7B8006DD8010004000001DCCB010045464BE6D2
:10B7C800054649E6014B1860704700BF90C5002048
:10B7D80030B5002587B0CDE903010446009503A9DB
:10B7E80005480595FDF75CFBDDE904309842B8BFD4
:10B7F800255407B030BD00BF51820100032808B5A9
:10B8080006D90DF0D4FD092303604FF0FF3008BDC1
:10B818002822044B02FB0033D3E8AF3F002BF0D0C3
:10B828000020F4E77CD5002070B504460E46154686
:10B83800FFF7E4FF00280DDB28236343064AD118ED
:10B848004968316015B10C3313442B6028235C43DD
:10B85800105970BD0020FCE774D5002070B5002594
:10B868004FF0FF334FF0FF32174809F0C5FA174B76
:10B87800D3E8AF2F7AB10135042D03F12803F7D1AE
:10B888000DF095FD17234FF0FF3503600E4809F0C2
:10B898002BFB284670BD28246C43D3E8EF0F0130FA
:10B8A800C3E8E10F0029F8D1094E331932515A6023
:10B8B80004F10C0030440FF082FF04F12000304402
:10B8C80010F07EF8E2E700BF58CA00207CD50020BF
:10B8D80074D5002010B40446104628225443094B5E
:10B8E8001A191951506048B1C2683AB10C3423444E
:10B8F80040F205125DF8044B0CF0DDBC5DF8044B1A
:10B90800704700BF74D500202823434330B50D4944
:10B9180008330B44D3E8AF2F92B1541ED3E8EF5F3E
:10B92800954204D1C3E8EC4FBCF1000FF6D1F1D138
:10B93800012A05D12823584300230A180B505360C5
:10B9480030BD00BF74D50020F0B5024601680A2753
:10B958000020074E0B461C780131355D6D0701D478
:10B968001360F0BD07FB0043A3F13000F2E700BF0E
:10B978002DF701002DE9F84F15469A46D378224A4B
:10B988006F2B12F803B080460F460BF0030B29D03B
:10B9980024D8582B0CBF10260A26DDF828903246EA
:10B9A800002340463946FDF7AFF8092AD4B21ED81D
:10B9B8003034B045E4B277F1000709F8014D01D3FE
:10B9C800D14511D82B789B0605D5082E15D1AB7813
:10B9D80043F00803AB704846BDE8F88F03F0F7035F
:10B9E800702BD7E70826D8E780460F46D7E7BBF184
:10B9F800010F0CBF37345734DBE7102EEBD1AB788F
:10BA080043F01003E6E700BF2DF701002DE9F047EA
:10BA1800058B04462807904611D4022905F007052E
:10BA280040F0CC8020460CF0EFFE78B10138218B35
:10BA3800042811D8DFE800F0C2106D8595000129AF
:10BA48000CBF45F0100545F02005258388F31188C3
:10BA5800BFF36F8FBDE8F08701F0070AAA4500F031
:10BA6800A5800027B9463E46A368002B00F0BC809D
:10BA780041F00801218388F31188BFF36F8FA16813
:10BA8800002900F0BA800D68002900F0B68033461E
:10BA980052462046D1F80480C047002D76D02B6846
:10BAA80029461D46F0E701F007035A1F012A1BD853
:10BAB800002221F00701062B276889B2C4E9002279
:10BAC80009D13B4603E0628B013262831B68002B7D
:10BAD800F9D141F00201204621830CF095FE00289F
:10BAE8007AD041F0200176E0042B0AD121F0070139
:10BAF80089B2204621830CF087FE10B141F0200165
:10BB08002183218B01F0070AAA454FD00027B946A7
:10BB1800AAE7236921F0070141F00601062DD3F8B1
:10BB2800009021832DD1B9F1000F3FD041F00801D9
:10BB3800218388F31188BFF36F8F20463949C8479E
:10BB480029E021F00701236941F0040189B2042D9D
:10BB5800D3F804902183E6D000274FF0040A3E462C
:10BB680082E721F00701236941F0050189B2052D1B
:10BB7800D3F808902183D6D000274FF0050A3E4617
:10BB880072E700274FF0060A3E466DE72B4687E727
:10BB9800B9F1000FD1D1EFF31188202383F3128874
:10BBA800BFF36F8F238B23F008032383258BEA06CB
:10BBB8002ED525F01003238305F007056669218B30
:10BBC800002EBFF670AF00232768C4E9003321F0C8
:10BBD800070141F001012183218B4FF0000901F099
:10BBE800070AAA457FF440AF002F9CD041F0080116
:10BBF800218388F31188BFF36F8F002FC8D03D6869
:10BC080039463346524620460CF02AFE2F46F4E7C2
:10BC1800AB067FF51BAF25F02003238305F007054E
:10BC280000E700BF958801002DE9F0470446074664
:10BC38004FF00109DFF8508014B93846BDE8F087A5
:10BC480094FAA4F5B5FA85F509FA05F32E0108EB7F
:10BC580005156FEA030A24EA03042B7B002BEBD0BB
:10BC680058F806301B694BB94644736804222846C5
:10BC7800196807EA0A0700F04DFADDE728469847F1
:10BC88000028D9D1F0E700BF64CC010030B500220C
:10BC980089B00F490F4810F039F80022002300241A
:10BCA800CDE906230E230C4DCDE903344FF4407241
:10BCB8002846CDE90144094B0949009409F0B4FB31
:10BCC800084928460FF086FE204609B030BD00BF5F
:10BCD800F1BC000070D00020A0CB0020C9BF00003C
:10BCE80070E5002027D90100014809F06BB900BFB1
:10BCF800E8CA00202DE9F04780461F480F460CF09F
:10BD08007FFE0646002830D000252846BDE8F0878B
:10BD1800237B6BB12368DB680BB120469847236807
:10BD28001B69D3B9636804222046196800F0F2F948
:10BD3800013610344C45EBD3B8F1000FE5D0002D97
:10BD4800E2D02846FFF770FF0546002FF7D0002104
:10BD58004FF4A47009F022FEF1E720469847002826
:10BD6800E0D00AFA06F31D43E2E705464FF0010A60
:10BD7800024CDFF80C90DDE724D6002064CC0100EB
:10BD880074CC0100014B53F820007047ACCD010082
:10BD980008B5034608462BB1044A136000F05EFC60
:10BDA800002008BD6FF01500FBE700BF94C5002018
:10BDB80010B5044C237813B9034809F003F901239B
:10BDC800237010BDFFE30020E8CA002010B5044628
:10BDD80006480CF015FE3CB1054BD3E8EF1F0139BE
:10BDE800C3E8E21F002AF8D110BD00BF1CD600200E
:10BDF80020D6002000200146034BD3E8EF0FC3E80C
:10BE0800E21F002AF9D170471CD6002070B5FFF751
:10BE1800F1FF0546074C084EB44200D370BD636875
:10BE28005B792BB123685B6813B129462046984794
:10BE38001034F1E764CC010074CC010010B5044C57
:10BE4800044920460CF088FB034B1C6010BD00BF62
:10BE58009CC9002098CD010014D6002008B5002305
:10BE6800074A4FF400411370064A07481360074A0F
:10BE78001360FFF78DFFBDE80840FFF7DFBF00BF85
:10BE880000E400201CD60020058A010020D60020EE
:10BE980001460022002301480CF07FBB9CC900200A
:10BEA80001480CF015BC00BF9CC90020024B01469C
:10BEB80018680CF061BC00BF14D6002001480CF0D3
:10BEC80096BC00BF9CC9002070B5264B1878002886
:10BED80047D0FFF7E5FF054670B1234BD3E8EF1FC6
:10BEE8000139C3E8E21F002AF8D1204C204EB442A1
:10BEF8002DD32846FFF7DAFF1E4B1F4C1B68002B7B
:10BF080019DD0FF0BCFE4FF47A72A0FB020302FBAE
:10BF18000131C30B43EA4143D4E900209B1A40F2A4
:10BF2800E9324FEAD13161EB0001934271F100012E
:10BF380001D3FFF76BFFD4E9003213F57A7342F1AE
:10BF48000002C4E90032BDE87040FFF7B7BF63687C
:10BF58005B7923B12368294620461B68984710342B
:10BF6800C5E770BDFFE3002020D6002064CC0100A7
:10BF780074CC01001CD6002068D0002070B50D4D8F
:10BF8800297861B90120FFF7B5FE0B4C0B4EB4427E
:10BF980006D3FFF799FF0028FBD101232B7070BD52
:10BFA80063685B791BB1236820469B689847103407
:10BFB800EDE700BF00E4002064CC010074CC010070
:10BFC80000212DE9F0470846FFF794FE044648B3E0
:10BFD80040F267684FF0000909F0FEFC1A4B186040
:10BFE80030B11A4B1B68092B02DD194808F0EAFF2B
:10BFF8000025184FDFF858A044B12046FFF714FE7B
:10C00800044618B94FF0FF384FF0FF39FFF75CFFCF
:10C01800064628B9B5B942464B46504608F0F6FFE1
:10C028003546E9E74FF0FF384FF0FF39D4E72B6882
:10C038009B691BB100222846114698471035BD421E
:10C04800F5D3E8E7044DFAE718D6002020D60020FB
:10C05800E8CA002074CC010064CC010013B518486C
:10C068000CF0CEFC174B1B7873B1EFF3118420232F
:10C0780083F31288BFF36F8FFFF726FF84F31188CD
:10C08800BFF36F8F02B010BD0F4B1B68002BF9D0A8
:10C0980050B9002200230D48CDE900234FF4004297
:10C0A800002309F001FFEDE70928EBD107480FF05D
:10C0B80039FE074802B0BDE8104008F083BF00BF52
:10C0C80020D6002000E4002018D6002070D00020E0
:10C0D800E8CA002010B5064B04461B68984721465D
:10C0E800A06004480CF0D5FABDE81040FFF7B6BFD1
:10C0F80094C500209CC90020044A054B9B1AB1EB4B
:10C10800D30F34BF52F8310000207047BCCB010078
:10C1180064CC0100084B10B4C31A44681B110133E6
:10C12800237143689A7101224368196043685A7100
:10C138005DF8044BFFF73CBE64CC01002DE9F04FDD
:10C148008FB0C1F34A2804AF0D469146B8607B60B2
:10C158000C0DB8F1000F63D000264FF0040B4FF020
:10C168000A0A07F11403C7F80C80C7E907667E625C
:10C178000193CDF808B0CDF800A007F11C033246B2
:10C188004846F968FFF73EF9B0F5006F03461CD33F
:10C198006C468AB0D9F8041004AB26481A46C3E99D
:10C1A800050140F2FF71D9614FF400711984224BE7
:10C1B80042F8103F4FF4125133462048FFF7BEFFB4
:10C1C800A5462C37BD46BDE8F08FC0F30A0804F138
:10C1D8001700184420F0070080083B60FFF758FE5E
:10C1E80068F35325044690B13B6800F11001C7E994
:10C1F800083607F11403F961CDE900A3CDF808B0BA
:10C2080048460F4AF96807F11C03FFF7FBF868F383
:10C2180053252A4620467B68B9680CF023FCD0E7F2
:10C2280004F1170020F007008008FFF731FE0446EC
:10C23800EDE700BF3CD901000400000104CC010077
:10C24800418A01002DE9F04F87B00446DDE9105A14
:10C25800DDE912690F4693469846A6B31021334686
:10C2680052460020CDF80090CDF81490FEF7F8FE65
:10C27800014605F117000844144B04F007040BF0BD
:10C28800070BE40020F0070003EA412344EA8B147B
:10C2980080081C430391FFF7FBFD44EA055405465B
:10C2A80040B13EB1334652460399CDF80090103064
:10C2B800FEF7D6FE434622463946284607B0BDE873
:10C2C800F04F0CF0CFBB3146D3E700BF00FE0F00A4
:10C2D800406820B1034BC01A40F3CF0070474FF0BD
:10C2E800FF307047BCCB01000EB403B503AB53F865
:10C2F800042B0146044801930CF031FC02B05DF8B0
:10C3080004EB03B0704700BF8F8B0100CA0605D449
:10C318008B064CBF02490349FFF7E6BF704700BFD1
:10C328006BD801006AD801002DE9F04F8BB09A460E
:10C33800169B9DF854B00693179B04460593189BCB
:10C348000D469046199E0493BBF1000F00F09E80A5
:10C3580006F00103089306F00803079306F48073B8
:10C3680009930CF067FB06F00209024600283BD04F
:10C3780020468F49FFF7B8FF0746B9F1000F08D0EC
:10C3880016F0440F32D12A4620468A49FFF7ACFFFF
:10C398000744089B53B1884B204653F82B20874B02
:10C3A8008749002A08BF1A46FFF79EFF099B002B02
:10C3B80048D0079B002B62D1B8F1000F64D04246E9
:10C3C80020468049FFF790FF0546069B3D44002B19
:10C3D8006BD1049B002B71D1F30700F1E380314648
:10C3E8002046FFF793FFD7E00746C6E7764B186865
:10C3F8000028CDD0754B4FF47A791B684FF46161F2
:10C40800B5FBF3F5B5FBF0F300FB135509FB05F598
:10C41800B3FBF1F2B5FBF0FE4FF03C0C01FB12311F
:10C4280000FB1E55B1FBFCF309FB05F5B5FBF0F568
:10C438000CFB131120460091CDE901E56449FFF793
:10C4480053FFA5E7079BEBB1624B204653F82B201F
:10C458006149FFF749FF0546B8F1000F05D042468C
:10C4680020465849FFF740FF0544BAF1000FACD009
:10C47800524620465949FFF737FF0544A5E74FF0D4
:10C48800000AE1E7079DE7E745469EE7BAF1010F95
:10C49800069B06D1002B65D1049B002B7CD0002580
:10C4A8000CE0002BF8D04E485DE04E48069B224633
:10C4B8004D490BF071FE049B002B69D0DFF83C81DD
:10C4C800DFF83C91049F3146102F204628BF1027E3
:10C4D8004FF0000AFFF71AFF554546DC059B494611
:10C4E80020461A78FFF700FF4FF0010A1AF0070FED
:10C4F80003D141462046FFF7F7FE57453CD9059B37
:10C508004946204613F80A20FFF7EEFE0AF1010A11
:10C51800BAF1100FEAD14FF0000A20463349FFF76D
:10C52800E3FE5246059B20469A5C314B995C11F01C
:10C53800970F08BF2E222F49FFF7D6FE0AF1010AEE
:10C54800BAF1100F1DD01AF0070F03D1414620464B
:10C55800FFF7CAFE57455246E4D841462046FFF742
:10C56800C3FEEBE71F485D46A0E741462046FFF7BC
:10C57800BBFE0AF1010AAFE720461F49FFF7B4FEE8
:10C58800C4E7059B3B440593049BDB1B049399D1AB
:10C59800BBF1000F7FF420AF20460BB0BDE8F04F91
:10C5A8000CF0E4BA2046054A0549FFF79DFE16E758
:10C5B80080D9010084D90100BCCD01007BD90100DC
:10C5C80025E50100A9D901002CD6002028D6002095
:10C5D8008DD90100D0CD0100ADD90100B3D901003A
:10C5E800BD8B01008F8B0100678B0100C2D9010050
:10C5F8002DF701002CE80100BED90100C0D90100C7
:10C60800B8D9010042F20F7373B58B4228BF0B46AD
:10C6180005680446052168460D4A0BF035FE0646B6
:10C62800636828460B225B680A490CF08AFA63683B
:10C638003246694628465B680CF083FA63681B2219
:10C6480028465B6804490CF07CFA02B070BD00BF54
:10C658006ED60100E0D90100C4D9010000210123F0
:10C66800064A904206D8064A01B901231360054BD1
:10C6780018607047012140085B00F2E740420F0054
:10C6880028D600202CD60020F8B50D460446064FC3
:10C698004618B44201D12846F8BD14F8011BBB68FE
:10C6A80001485B689847F4E77CC90100014B0360C7
:10C6B8000020704718CE010007B504210DEB0100DA
:10C6C80000F074FF019A024B1A8003B05DF804FB76
:10C6D80026DE0020024B1888421C1A80704700BFD3
:10C6E80026DE002008B504480BF0C1FDBDE808406F
:10C6F80002480BF0BCBD00BF26DA01005BDA01007E
:10C708002DE9F84F80460C4600AF002965D0D1E9E5
:10C718000012E9468AB0A3686D464FF0050A2E4616
:10C728003748C5E90723C5E9050146F810AF0023D6
:10C7380032464FF421513348FFF700FDD4E9031284
:10C74800CD466369AD463048C5E90723C5E905010B
:10C75800C5F810A0002332464FF421512948FFF7AD
:10C76800EDFCCD46E3690121284A26480CF0D3F9AF
:10C77800264600254FF00A0ADFF8A0B0E946D6E9B8
:10C7880008E0D6E90A138EB06A46C2F81CE005F143
:10C79800010EC2E908E0A81CC2E90A01E91CC2E9C5
:10C7A80005B5C2E90C1342F810AF002345F2400169
:10C7B80014480435FFF7C2FC102DCD4606F11006CB
:10C7C800DCD1236E0121124A0E480CF0A4F9A369AA
:10C7D8000121104A0B480CF09EF9B8F1010F07D15E
:10C7E800EFF305830C4A41460648103B0CF093F9D9
:10C7F8002146404608F052F9BD46BDE8F88F00BF13
:10C8080089DA01004CCC0100B8DA0100E7DA01004E
:10C8180039DB010048DB010076DB0100F6DA0100B4
:10C8280030BFFFF7FDBF00BF074A936893F90E10AA
:10C83800002907DB926993421FBF044A536843F0FB
:10C8480080535360704700BFD8DD002000ED00E042
:10C8580070B52A4C06460D4629482A490CF0F8FCC2
:10C86800A36ADB0647D5264827490CF0F1FC1120BE
:10C87800A36A1C0704D5224824490CF0E9FC1220BD
:10C888001E4CA36A990712D521491D480CF0E0FCFB
:10C89800636BA26A120609D501211E4A18480CF0DA
:10C8A8003AF91EB1A36A23F08003A3621320134C44
:10C8B800A36ADE0704D5124817490CF0C9FC1420F6
:10C8C800A36A9C0604D50E4814490CF0C1FC152037
:10C8D8000A4B9A6AD10658BF9A6A9A6A920642BF68
:10C8E8005A6A22F400525A629A6A42F0FF029A6225
:10C8F80000232B7070BD1020BAE700BF00ED00E0E8
:10C908004CCC010089DB01009FDB0100D2DB010078
:10C91800E5DB0100FDDB010013DC010032DC010076
:10C9280010B5244C244925480CF092FCA36A9901BF
:10C938003ED5224822490CF08BFC1E20A36ADA015E
:10C9480004D51E481F490CF083FC1F20194CA36A0C
:10C95800DB0204D519481C490CF07AFC0220A36AB2
:10C968001C0304D5154819490CF072FC2120114C00
:10C97800A36A590304D5114815490CF069FC222013
:10C98800A36A9A0304D50D4812490CF061FC2320D0
:10C99800084CA36ADB0304D508480F490CF058FC7F
:10C9A8002420A36A6FEA03436FEA1343A36210BD0E
:10C9B8001D20C3E700ED00E061DC01004CCC010064
:10C9C80079DC01008CDC0100A6DC0100D0DC010070
:10C9D800EEDC010013DD01002DDD010070B5294CEE
:10C9E80006460D46284829490CF032FCA36AD904AA
:10C9F8003CD5254826490CF02BFC1720A36A1A05BC
:10CA080004D5214823490CF023FC18201D4CA36AA7
:10CA18009B0512D51C4820490CF01AFCA36BA26A8E
:10CA2800100409D501211D4A17480CF074F81EB1ED
:10CA3800A36A23F40043A3621920124CA36A590580
:10CA480004D5114816490CF003FC1A20A36ADA052C
:10CA58000ED50D4813490CF0FBFB1B20094A936ABD
:10CA680043F47F43936200232B7070BD1620C5E703
:10CA7800A36A9B04F2D504480B490CF0E9FB1C207F
:10CA8800ECE700BF00ED00E04CCC010058DD0100F0
:10CA98006EDD0100D2DB01007FDD010098DD0100C1
:10CAA800ADDD0100C8DD010032DC01002DE9F047F1
:10CAB8009CB0664B0546D3F804A089461446002668
:10CAC80000AFCAF3080886F31188BFF36F8F02F02E
:10CAD8007F43B3F17F4F1DD1D3071BD4500603D436
:10CAE800110708D4012608E059495A480CF0B0FB50
:10CAF80014F0040400D04D4600260023FB71A8F171
:10CB08000303092B7FD8DFE803F0077679737E7E6D
:10CB18007E7E7E7C3546F0E74F494E480CF098FB08
:10CB280000234A4CFB71E36A9A0705D54B494948EB
:10CB38000CF08EFB002429E0E36A002B01DA484957
:10CB4800F5E7E36A5B00F5D5464942480CF080FBFF
:10CB58006369AA6943F480736361BFF34F8FBFF3BE
:10CB68006F8F636932F8022C23F480736361BFF31B
:10CB78004F8FBFF36F8F4DF602739A4222D12B6805
:10CB88000121394A33480BF0C6FF2C68FB79ABB951
:10CB98006822294607F108000FF0A6F97B6A002EE3
:10CBA8004ED0C3F3080222B96FEA53236FEA432336
:10CBB8007B62204607F10801FFF7A2FD7037BD46EA
:10CBC800BDE8F087A36ADBB22BB10120F91DFFF79E
:10CBD8003FFE0446DAE7A36A13F47F4F04D001202E
:10CBE800F91DFFF7FBFEF4E7A36AB3F5803FA1D375
:10CBF800FFF796FEEDE70020F91DE8E70020F91D94
:10CC0800EFE71A4993E71A4A6C461AF4F87F8AB094
:10CC1800184B18BF13466A461749C2E90513A8F10D
:10CC28001003D3614FF400731384144B42F8103F80
:10CC380000234FF411510748FFF780FAA54679E71A
:10CC480023F4FF7323F00103B2E700BF00ED00E017
:10CC58000EDE01004CCC010031DE010048DE01008F
:10CC680069DE010077DE010096DE0100B2DE010018
:10CC7800F5DD0100E0DD0100D6DE01000400000161
:10CC8800044B5A6942F010025A615A6942F48062B0
:10CC98005A61704700ED00E0EFF30880EFF3098177
:10CCA80001B57246FFF702FF01BD00BF002080F307
:10CCB8001488BFF36F8F002080F30A8880F30B88F5
:10CCC80004F0E6FF00200E490860BFF34F8F0D48BF
:10CCD80080F3088800F02CF8202080F311880A4897
:10CCE8004FF40061401880F30988EFF314800221A3
:10CCF800084380F31488BFF36F8F00F023F9000016
:10CD080094ED00E0B016012070ED002000231846D5
:10CD18000649D1F89020C2F30722934200DB7047FE
:10CD2800C1F89830C1F8A0000133F6E700ED00E043
:10CD380010B572B6002484F31388FFF7E7FF234683
:10CD48004FF0FF300C4A03F120010133102B42F859
:10CD58002100F8D100234FF0FF30074A03F16001AA
:10CD68000133102B42F82100F8D162B6BFF34F8F80
:10CD7800BFF36F8F10BD00BF00E100E0084B9B6858
:10CD880083420BD1EFF3058343B1064B5A6842F057
:10CD980080525A605A6A22F400425A620EF012BF58
:10CDA800D8DD002000ED00E06FF00A01084A936822
:10CDB800D967084998674B6843F080534B60002354
:10CDC80083F31188BFF36F8F9368D86F704700BFE4
:10CDD800D8DD002000ED00E00E4A936883F8C1001A
:10CDE800EFF31183202383F31288BFF36F8F4FF083
:10CDF8000061936920F0FF009360074A51600021A9
:10CE080093F8C12010439A6F996782F31188BFF392
:10CE18006F8F7047D8DD002000ED00E01D498A685B
:10CE280082F8C1E04FF030001044EFF3098C80E83D
:10CE3800F01F1EF0100F03D102F1800080EC108A61
:10CE480074467046FFF7C8FFA64612498A688646A8
:10CE58001EF0100F03D00023E1EE103A03E002F1B8
:10CE6800800090EC108AEFF3148323F0040383F31B
:10CE78001488BFF36F8F02F1300090E8F01F8CF335
:10CE8800098802F1000004B50CF018FABDE8044066
:10CE980070470000D8DD00201EF0040F0CBFEFF330
:10CEA8000880EFF30980816911F8021C0229FFD07C
:10CEB80001B50CF0C2F901BD40B2002807DB01231F
:10CEC8004109034A00F01F00834042F821307047AF
:10CED80000E100E040B200280CDB012206494309CA
:10CEE80000F01F008240203341F82320BFF34F8F0A
:10CEF800BFF36F8F704700BF00E100E0054B4209A8
:10CF080053F82220012300F01F0003FA00F010401C
:10CF1800704700BF00E100E040B2002801F10101C4
:10CF2800ACBF00F16040064B4FEA4111C9B2ABBF3C
:10CF380000F5614000F00F0080F8001319547047A5
:10CF480014ED00E0144A08B5144B22F07F029A60F1
:10CF5800BFF34F8FBFF36F8FD3F8882022F470028E
:10CF6800C3F88820D3F8882042F4A002C3F88820A8
:10CF78004FF04042C3F83422BFF34F8FBFF36F8F97
:10CF88000023E1EE103A07F073FE08F0C3FD00F04D
:10CF98007BF807F0ADFE00BF0080000000ED00E068
:10CFA80042F8203C009B0D4942F81C3C019B21F0B3
:10CFB800010142F8183C029B42F8081C42F8143C54
:10CFC8004FF0807342F8043C002383674FF43C43DE
:10CFD800203A0265C0F8C030704700BFAB8201003C
:10CFE800104B9B6883421AD1EFF30580B8B9EFF371
:10CFF8001181202282F31288BFF36F8F1A7B22F0EF
:10D0080002021A73EFF3148323F0040383F31488E2
:10D01800BFF36F8F81F31188BFF36F8F70476FF085
:10D0280015007047D8DD00200E4615460023E1EEB6
:10D03800103AEFF3148323F0040383F31488BFF347
:10D048006F8FBFF36F8F0A4B9860836E83F30B88E3
:10D058002C4686F309884FF00000064B9847204677
:10D068004FF000014FF000024FF00003024C204740
:10D07800D8DD0020CD920100AB8201001022014BC7
:10D088001A61704700ED00E0002320210348C21810
:10D098000133412B82F80013F9D1704700E100E019
:10D0A80008B5EFF30583064A103B02EBC30152F8BB
:10D0B800330049688847BDE80840FFF7B5BB00BFA3
:10D0C800A4C901001FB5094C094A23460121094892
:10D0D80000F012F900230393074B0121E41A01A879
:10D0E8000193029400F012F904B010BD000004206E
:10D0F80080C5002018CE0100A0CB002010B50C7A06
:10D108000B6804F01F0223F01F031A43CB6864095D
:10D1180023F01F03054943EA440343F00103C1F820
:10D128009800C1F89C20C1F8A03010BD00ED00E0C7
:10D1380010B50A4BD3F89030C3F30723013B98424C
:10D1480008D901210346064A06480BF0E4FC6FF0B3
:10D15800150010BDFFF7D2FFFBE700BF00ED00E0B0
:10D16800EDDE01002CCC01002DE9F04F8946144674
:10D1780006464FF00008514D85B0C84527DAD6F865
:10D1880004A0BAF1000F44D0BAF11F0F17D91AF052
:10D198001F0F14D1D6F800B01BF01F0F0FD158463F
:10D1A8000CF0B3F807460AEB0B0001380CF0ADF8A9
:10D1B800874210D06FF01507414A3B4601E04346CD
:10D1C800404A012140480BF0A6FC6FF015042046A8
:10D1D80005B0BDE8F08F17F1160FEDD0BC42EBDDBE
:10D1E800C5F89870D5F89C10C5F89870D5F8A03097
:10D1F80021F01F0143F01F0BD6E900321A4499426F
:10D2080002F1FF3A1DD1D34507D13146F8B20CF0EF
:10D2180085F808F101080C36AFE73146C5F8987073
:10D22800D5F89C3022F01F0203F01F031343C5F802
:10D238009C30E0B20CF072F810F1160FC5D0441C07
:10D24800E7E7C5F89870D5F8A020013B23F01F0345
:10D2580002F01F021343D3453146E0B2C5F8A030AF
:10D26800E8D00CF05BF810F1160FAED0C5F8987046
:10D27800D5F89C209DF808300BF1FF3B62F30403BE
:10D288008DF80830D5F8A0309DF808205B0863F3C6
:10D2980047128DF80820D6E900321344009323F092
:10D2A8001F035B44A3EB0A03013023F01F03694605
:10D2B800C0B20393FFF73CFFBEE700BF00ED00E0FC
:10D2C80036DF010013DF01002CCC01000522044BDE
:10D2D800C3F89420BFF34F8FBFF36F8F704700BF21
:10D2E80000ED00E0BFF35F8F0022024BC3F89420EB
:10D2F800704700BF00ED00E010B5034C2278FFF73F
:10D3080033FF207010BD00BF02E400202DE9F74F65
:10D31800294D8A4606464FF00008AB46274FD045B0
:10D328001BDAD6F80490B9F1000F3FD031680846EF
:10D3380001910BF0EAFF0199044609EB010001385D
:10D348000BF0E3FF84424FF014021D4B08D002FBA0
:10D3580008F36FF015024BF8032003B0BDE8F08F17
:10D3680014F1160F2C60F8D01978A142F5DD02FBF4
:10D3780008B0C7F89840C7F89840D7F89C4000F123
:10D388000801007B64F304000871D7F8A0000C7949
:10D39800400860F347140C71D7F89C1021F01F0166
:10D3A8006960D7F8A01021F01F01296108F1010870
:10D3B80014350C36B3E700BF5CD6002000ED00E062
:10D3C80002E40020F0B54149414CD1F8903025687D
:10D3D800C3F307239D4287B075D80020FFF782FF6B
:10D3E8003C4BC1F8C030854216D13B4C01A8257092
:10D3F800FFF75CF900250646384FAE4213D10020EE
:10D4080023783249D1F89020C2F30722934254DBA3
:10D41800FFF75CFF00202FE0616801EB0011FFF7C8
:10D428006DFE0130DFE70199280101EB0513DA6889
:10D438003A40B2F5001F21D0B2F5800F2BD0B2F5DB
:10D44800801F38D15A689B680958013B22F01F0099
:10D4580003440120844623F01F0340EA4C10CDE921
:10D4680002218DF8100002A920780593FFF760FECD
:10D4780000281DDA6FF0150007B0F0BD5A689B68E8
:10D488000958013B22F01F0003444FF0020C012011
:10D4980023F01F03E1E75A689B680958013B22F013
:10D4A8001F0003444FF0000C062023F01F03D4E7AD
:10D4B80023780133237001359FE7C1F89830C1F80C
:10D4C800A00001339EE74FF0FF30D5E700ED00E004
:10D4D80024CE0100AAFF440002E400200000F0FF6F
:10D4E800014B1860704700BFA4C50020F8B5064678
:10D4F8000D460024064FAC4208DA3B6898470A28D4
:10D50800305504F1010401D00D28F4D12046F8BDAE
:10D51800A0C50020F8B50D46094F461EC0F101040C
:10D52800A3199D4201DC2846F8BD73780A2B02D165
:10D538000D203B6898473B6816F8010F9847EFE7BE
:10D54800A4C5002010B5074C2368C2180648C0F1CE
:10D55800005101F580218A4236BF22604FF0FF302A
:10D56800C01810BD70D60020302B012008B5054822
:10D578000AF07DFE002383F31188BFF36F8F042325
:10D58800184602DF68DF01000122024B0020C3F8C1
:10D59800402570470090034020B1034B800143F0C1
:10D5A80001031847704700BF90CC0100F7B5064645
:10D5B8000D460D488AB2836831461B689847002893
:10D5C80010DA00240CE02F1B042F28BF04270CF0CE
:10D5D80074F93A46019001A930190EF085FC3C44D3
:10D5E800A542F0D803B0F0BD68C901002DE9F041AB
:10D5F80005460E461746104CDFF84080444507D3D1
:10D608000BF0D5FE6A2303604FF0FF30BDE8F081D0
:10D618002368AB4200D063B93A4631462846A3682E
:10D62800984730B13A4631462846E368BDE8F041AC
:10D6380018471034E2E700BFACCB0100BCCB0100B7
:10D64800014B1860704700BF74D600202DE9F041E7
:10D658000D460646E8B1E1B10846FBF7C7FB0828C6
:10D668001AD8104FDFF84080441C474507D322469C
:10D678002946301D0EF038FC0020BDE8F081B74285
:10D6880005D022462946381D0EF01EFC38B13C371D
:10D69800EBE76FF01500F0E76FF05A00EDE76FF079
:10D6A8007700EAE730CB00206CCB0020F0B54FF0D4
:10D6B800FF324FF0FF33274885B00BF0E8FE002516
:10D6C800254C264EB44205D3224805B0BDE8F040AB
:10D6D8000BF0FBBEC4E90155236825731B689F68DE
:10D6E80097B13B6883B104F110000EF068F804F1BB
:10D6F80024000EF064F83B682046984794F83830C8
:10D7080023F0030384F83830237903BB2046CDE99E
:10D7180001338DF80C300BF053FF40B1104A01A8CB
:10D728001368591C116008210E4A0AF0ADFD9DF8D6
:10D73800043043B90C4A01A81368591C1160082128
:10D748000A4A0AF0A1FD204601A9FFF77FFF3C34F1
:10D75800B8E700BF94CA002030CB00206CCB002073
:10D768007CD600208CDF010078D6002093DF0100F2
:10D7780038B5074C074DAC4200D338BD03212046CD
:10D788000BF08EFE10B920460BF0E8FE3C34F2E7B1
:10D7980030CB00206CCB0020084B70B5C31A0D4667
:10D7A80007499B1004465943402206480BF01EFFC8
:10D7B8002B4601462046BDE87040184794D6002005
:10D7C800B76DDBB640C90100402373B50B4C00931D
:10D7D800041B0B460D460A49A41061430646094A34
:10D7E80009480BF02EFF011E05DA30462B4602B021
:10D7F800BDE87040184702B070BD00BF94D6002045
:10D80800B76DDBB6B396010040C9010010B5EFF360
:10D818001184202383F31288BFF36F8F074A13689C
:10D8280023F00201DB07116002D401200CF0CCFCCC
:10D8380084F31188BFF36F8F10BD00BFE4D60020BA
:10D8480070B50022012104460520FFF765FB0F484B
:10D8580004F0C6FA0E4B984215D104F0D1FA2669A5
:10D868000C4930460BF020F800280BDB0125356405
:10D878002469084904F11C000BF016F8002801DBA4
:10D888000020E56470BD6FF00400FBE7A9D9000033
:10D898000000AD0B4CCE01007FB500220123CDE97D
:10D8A800022304ABCDE90433094A6B46CDF800D016
:10D8B800CDF804D00BF0F2FE002805DB4FF48042CF
:10D8C8000023684607F0A2FB07B05DF804FB00BF21
:10D8D800D39601000C22104B014602FB00330020B6
:10D8E80030B4D3E90E529863EFF31180202484F307
:10D8F8001288BFF36F8F1C6C04F0C00444F002045C
:10D908001C6480F31188BFF36F8F1DB12B4630BCA8
:10D918000248184730BC704794D6002040C901001F
:10D9280010B4EFF31182202383F31288BFF36F8FB3
:10D938001848016841F002040460C80708D482F35B
:10D948001188BFF36F8F01205DF8044B04F06CBAA7
:10D958001149D1F80C04D1F80C14C907EFD5EFF32D
:10D96800118083F31288BFF36F8F0C490B6C03F09F
:10D97800C00343F002030B6480F31188BFF36F8F79
:10D9880082F31188BFF36F8F00205DF8044BFFF717
:10D99800A1BF00BFE4D600200050004094D600206C
:10D9A80010B1012804D07047034B1B6C5B0701D1F1
:10D9B800FFF790BF704700BF94D600202DE9F041D3
:10D9C800012207463449D1E8EF3FC1E8E02F00289B
:10D9D800F9D133B9314932484B60CB608A600AF0DB
:10D9E80076FF7B1E012B28D8012F06D12D4BD3F8AB
:10D9F8001C3403F00303022B1FD00DF0E5FF05468E
:10DA0800E8B9294B1B78D3B102220646254BC3F847
:10DA18000823244CDFF89480D4F81824D4F8183458
:10DA2800D20315D503F00303022B01D0012F0FD128
:10DA38006DB386F31188BFF36F8FBDE8F081EFF304
:10DA48001186202383F31288BFF36F8F0125E0E747
:10DA5800C5B130460BF04AFCD4F81835DBB2012BBF
:10DA6800DAD1D4F80421002AD6D00022C4F804213F
:10DA7800D4F804210222C4F818252022C8F88021ED
:10DA8800A360C9E70021212007F088FFE4E702220C
:10DA9800044BC3F80423D0E790D6002080D600209A
:10DAA800B0D600200050004069E5002000E100E009
:10DAB80008B507480DF0D1FD38B10648FFF710FD4D
:10DAC8000448FDF77FFE002008BD6FF01200FBE759
