:1080000010150120D9D0000071A10100C5D00000D9
:10801000C5D00000C5D00000C5D00000C5D000000C
:10802000000000000000000000000000BDD20000C1
:10803000C5D000000000000029D20000C5D000001B
:10804000EDD40000EDD40000EDD40000EDD400002C
:10805000EDD40000EDD40000EDD40000EDD400001C
:10806000EDD40000EDD40000EDD40000EDD400000C
:10807000EDD40000EDD40000EDD40000EDD40000FC
:10808000EDD40000EDD40000EDD40000EDD40000EC
:10809000EDD40000EDD40000EDD40000EDD40000DC
:1080A000EDD40000EDD40000EDD40000EDD40000CC
:1080B000EDD40000EDD40000EDD40000EDD40000BC
:1080C000EDD40000EDD40000EDD40000EDD40000AC
:1080D000EDD40000EDD40000EDD40000EDD400009C
:1080E000EDD40000EDD40000EDD40000EDD400008C
:1080F000EDD40000EDD40000EDD40000EDD400007C
:10810000EDD40000EDD40000EDD40000EDD400006B
:10811000EDD40000EDD40000EDD40000EDD400005B
:10812000EDD40000EDD40000EDD40000EDD400004B
:10813000EDD40000EDD40000EDD40000EDD400003B
:04814000EDD400007A
:04814400FFFFFFFF3B
:1081480081F0004102E000BF83F0004330B54FEA00
:1081580041044FEA430594EA050F08BF90EA020F6D
:108168001FBF54EA000C55EA020C7FEA645C7FEA00
:10817800655C00F0E2804FEA5454D4EB5555B8BF23
:108188006D420CDD2C4480EA020281EA030382EA94
:10819800000083EA010180EA020281EA0303362D26
:1081A80088BF30BD11F0004F4FEA01314FF4801CF9
:1081B8004CEA113102D0404261EB410113F0004F0B
:1081C8004FEA03334CEA133302D0524263EB4303C2
:1081D80094EA050F00F0A780A4F10104D5F1200E60
:1081E8000DDB02FA0EFC22FA05F2801841F10001BB
:1081F80003FA0EF2801843FA05F359410EE0A5F18F
:1082080020050EF1200E012A03FA0EFC28BF4CF0BF
:10821800020C43FA05F3C01851EBE37101F0004575
:1082280007D54FF0000EDCF1000C7EEB00006EEB82
:108238000101B1F5801F1BD3B1F5001F0CD349080C
:108248005FEA30004FEA3C0C04F101044FEA445263
:1082580012F5800F80F09A80BCF1004F08BF5FEAEA
:10826800500C50F1000041EB045141EA050130BDCA
:108278005FEA4C0C404141EB0101013C28BFB1F5DC
:10828800801FE9D291F0000F04BF01460020B1FA27
:1082980081F308BF2033A3F10B03B3F120020CDAFA
:1082A8000C3208DD02F1140CC2F10C0201FA0CF0D8
:1082B80021FA02F10CE002F11402D8BFC2F1200C3D
:1082C80001FA02F120FA0CFCDCBF41EA0C019040F3
:1082D800E41AA2BF01EB0451294330BD6FEA04043C
:1082E8001F3C1CDA0C340EDC04F11404C4F1200227
:1082F80020FA04F001FA02F340EA030021FA04F339
:1083080045EA030130BDC4F10C04C4F1200220FA8F
:1083180002F001FA04F340EA0300294630BD21FACD
:1083280004F0294630BD94F0000F83F4801306BF93
:1083380081F480110134013D4EE77FEA645C18BF87
:108348007FEA655C29D094EA050F08BF90EA020F1E
:1083580005D054EA000C04BF1946104630BD91EA16
:10836800030F1EBF0021002030BD5FEA545C05D119
:108378004000494128BF41F0004130BD14F5800458
:108388003CBF01F5801130BD01F0004545F0FE41CC
:1083980041F470014FF0000030BD7FEA645C1ABF01
:1083A800194610467FEA655C1CBF0B46024650EA38
:1083B800013406BF52EA033591EA030F41F4002164
:1083C80030BD00BF90F0000F04BF0021704730B5EA
:1083D8004FF4806404F132044FF000054FF00001BF
:1083E80050E700BF90F0000F04BF0021704730B580
:1083F8004FF4806404F1320410F0004548BF404255
:108408004FF000013EE700BF42004FEAE2014FEAA9
:1084180031014FEA02701FBF12F07F4393F07F4F84
:1084280081F06051704732F07F4208BF704793F087
:108438007F4F04BF41F40021704730B54FF460749A
:1084480001F0004521F000411CE700BF50EA01029D
:1084580008BF704730B54FF000050AE050EA010246
:1084680008BF704730B511F0004502D5404261EBB6
:1084780041014FF4806404F132045FEA915C3FF4F7
:10848800D8AE4FF003025FEADC0C18BF03325FEA94
:10849800DC0C18BF033202EBDC02C2F1200300FA45
:1084A80003FC20FA02F001FA03FE40EA0E0021FA6A
:1084B80002F11444BDE600BF70B54FF0FF0C4CF458
:1084C800E06C1CEA11541DBF1CEA135594EA0C0F0A
:1084D80095EA0C0F00F0DEF82C4481EA030621EA45
:1084E8004C5123EA4C5350EA013518BF52EA033580
:1084F80041F4801143F4801338D0A0FB02CE4FF032
:108508000005E1FB02E506F00042E0FB03E54FF061
:108518000006E1FB03569CF0000F18BF4EF0010E59
:10852800A4F1FF04B6F5007F64F5407404D25FEA55
:108538004E0E6D4146EB060642EAC62141EA555108
:108548004FEAC52040EA5E504FEACE2EB4F1FD0C4A
:1085580088BFBCF5E06F1ED8BEF1004F08BF5FEAC8
:10856800500E50F1000041EB045170BD06F000467A
:1085780046EA010140EA020081EA0301B4EB5C0427
:10858800C2BFD4EB0C0541EA045170BD41F480111F
:108598004FF0000E013C00F3AB8014F1360FDEBF44
:1085A800002001F0004170BDC4F10004203C35DA20
:1085B8000C341BDC04F11404C4F1200500FA05F3A3
:1085C80020FA04F001FA05F240EA020001F0004244
:1085D80021F0004110EBD37021FA04F642EB0601BA
:1085E8005EEA430E08BF20EAD37070BDC4F10C04E4
:1085F800C4F1200500FA04F320FA05F001FA04F2A8
:1086080040EA020001F0004110EBD37041F1000193
:108618005EEA430E08BF20EAD37070BDC4F120059E
:1086280000FA05F24EEA020E20FA04F301FA05F206
:1086380043EA020321FA04F001F0004121FA04F2AE
:1086480020EA020000EBD3705EEA430E08BF20EA7E
:10865800D37070BD94F0000F0FD101F000464000B8
:1086680041EB010111F4801F08BF013CF7D041EA3A
:10867800060195F0000F18BF704703F0004652003E
:1086880043EB030313F4801F08BF013DF7D043EA0F
:108698000603704794EA0C0F0CEA135518BF95EAC5
:1086A8000C0F0CD050EA410618BF52EA4306D1D14C
:1086B80081EA030101F000414FF0000070BD50EA6B
:1086C800410606BF1046194652EA430619D094EAF5
:1086D8000C0F02D150EA013613D195EA0C0F05D1DF
:1086E80052EA03361CBF104619460AD181EA030133
:1086F80001F0004141F0FE4141F470014FF00000EB
:1087080070BD41F0FE4141F4780170BD70B54FF085
:10871800FF0C4CF4E06C1CEA11541DBF1CEA135505
:1087280094EA0C0F95EA0C0F00F0A7F8A4EB0504E7
:1087380081EA030E52EA03354FEA013100F08880DE
:108748004FEA03334FF0805545EA131343EA1263A7
:108758004FEA022245EA111545EA10654FEA00265C
:108768000EF000419D4208BF964244F1FD0404F515
:10877800407402D25B084FEA3202B61A65EB030571
:108788005B084FEA32024FF480104FF4002CB6EB2E
:10879800020E75EB030E22BFB61A754640EA0C00AE
:1087A8005B084FEA3202B6EB020E75EB030E22BFEE
:1087B800B61A754640EA5C005B084FEA3202B6EB2F
:1087C800020E75EB030E22BFB61A754640EA9C00EE
:1087D8005B084FEA3202B6EB020E75EB030E22BFBE
:1087E800B61A754640EADC0055EA060E18D04FEA7C
:1087F800051545EA16754FEA06164FEAC30343EA1C
:1088080052734FEAC2025FEA1C1CC0D111F4801FE8
:108818000BD141EA00014FF000004FF0004CB6E7E1
:1088280011F4801F04BF01430020B4F1FD0C88BF80
:10883800BCF5E06F3FF6AFAEB5EB030C04BFB6EB8B
:10884800020C5FEA500C50F1000041EB045170BD7E
:108858000EF0004E4EEA113114EB5C04C2BFD4EBAB
:108868000C0541EA045170BD41F480114FF0000E2F
:10887800013C90E645EA060E8DE60CEA135594EAAB
:108888000C0F08BF95EA0C0F3FF43BAF94EA0C0FAE
:108898000AD150EA01347FF434AF95EA0C0F7FF423
:1088A80025AF104619462CE795EA0C0F06D152EA77
:1088B80003353FF4FDAE1046194622E750EA41065B
:1088C80018BF52EA43067FF4C5AE50EA41047FF46C
:1088D8000DAF52EA43057FF4EBAE12E74FF0FF3CD1
:1088E80006E000BF4FF0010C02E000BF4FF0010CA2
:1088F8004DF804CD4FEA410C7FEA6C5C4FEA430C1B
:1089080018BF7FEA6C5C1BD001B050EA410C0CBF69
:1089180052EA430C91EA030F02BF90EA020F0020CB
:10892800704710F1000F91EA030F58BF994208BF32
:1089380090422CBFD8176FEAE37040F001007047EF
:108948004FEA410C7FEA6C5C02D150EA013C07D146
:108958004FEA430C7FEA6C5CD6D152EA033CD3D091
:108968005DF8040B704700BF8446104662468C468B
:108978001946634600E000BF01B5FFF7B7FF0028BE
:1089880048BF10F1000F01BD4DF808EDFFF7F4FFE7
:108998000CBF012000205DF808FB00BF4DF808ED72
:1089A800FFF7EAFF34BF012000205DF808FB00BF95
:1089B8004DF808EDFFF7E0FF94BF012000205DF8B7
:1089C80008FB00BF4DF808EDFFF7CEFF94BF01206C
:1089D80000205DF808FB00BF4DF808EDFFF7C4FF65
:1089E80034BF012000205DF808FB00BF4FEA410CAE
:1089F8007FEA6C5C02D150EA013C0AD14FEA430C91
:108A08007FEA6C5C02D152EA033C02D14FF00000CD
:108A180070474FF0010070474FEA410212F500120B
:108A280015D211D56FF47873B3EB625212D94FEAAD
:108A3800C12343F0004343EA505311F0004F23FA97
:108A480002F018BF404270474FF00000704750EAEC
:108A5800013005D111F0004008BF6FF000407047A9
:108A68004FF00000704700BF4FEA4102B2F1E04307
:108A780024BFB3F5001CDCF1FE5C0DD901F0004CFD
:108A88004FEAC0024CEA5070B2F1004F40EB83004D
:108A980008BF20F00100704711F0804F21D113F179
:108AA8003872BCBF01F00040704741F480114FEAB2
:108AB8005252C2F11802C2F1200C10FA0CF320FA3B
:108AC80002F018BF40F001004FEAC1234FEAD32358
:108AD80003FA0CFC40EA0C0023FA02F34FEA4303C2
:108AE800CCE77FEA625307D150EA01331EBF4FF04B
:108AF800FE4040F44000704701F0004040F0FE4066
:108B080040F40000704700BF53B94AB9002908BFB4
:108B180000281CBF4FF0FF314FF0FF3000F00CB8B9
:108B2800ADF1080C6DE904CE00F008F8DDF804E0BA
:108B3800DDE9022304B07047704700BF2DE9F04714
:108B480086468C460846089E154674461946002BEC
:108B580040F0C1808542B2FA82F245D94AB1C2F1E9
:108B6800200300FA02FC954094402EFA03F343EAEE
:108B78000C0C4FEA154EA8B2230CBCFBFEF80EFBFA
:108B880018CC08FB00F943EA0C43994528D9EB189F
:108B980008F1FF3704D2994502D9A8F102072B44FE
:108BA800A3EB0903A4B2B3FBFEFC0EFB1C330CFBC6
:108BB80000F044EA0344A04214D92C190CF1FF3305
:108BC80004D2A04202D9ACF102032C44241A43EA8D
:108BD80007401EB1D440002334607360BDE8F087BD
:108BE8004746DDE76346F1E792BB431B01214FEAA5
:108BF800154EAFB2200CB3FBFEFC0EFB1C330CFB76
:108C080007F840EA0343984561D9EB180CF1FF30A7
:108C180004D2984502D9ACF102002B44A3EB080317
:108C2800A4B2B3FBFEFC0EFB1C330CFB07F744EAB3
:108C38000344A7424DD92C190CF1FF3304D2A742A3
:108C480002D9ACF102032C44E41B43EA0040C0E71C
:108C5800C2F120039540944020FA03F12EFA03F361
:108C68004FEA154E9040AFB20343B1FBFEFC0EFB3A
:108C78001C10190C0CFB07F841EA0041884522D961
:108C880069180CF1FF3004D2884502D9ACF1020012
:108C98002944A1EB08019BB2B1FBFEFC0EFB1C11A1
:108CA8000CFB07F743EA01439F420ED9EB180CF17E
:108CB800FF3104D29F4202D9ACF102012B44DB1BE5
:108CC80041EA004193E76046E3E76146F7E760461B
:108CD800A4E76346B8E7834206D916B900210846D7
:108CE8007CE7C6E900E0F9E7B3FA83F78FB9834276
:108CF80001D3724508D8BEEB020460EB03030120E0
:108D08009C461EB9002169E73846FAE7C6E9004CD7
:108D1800F8E7C7F1200CBB400EFA07F522FA0CF46D
:108D28002EFA0CF1BA401C4320FA0CF3B8404FEA73
:108D3800144901431FFA84FEB3FBF9F809FB183004
:108D48000B0C08FB0EFA43EA00439A4540D9E31896
:108D580008F1FF3004D29A4502D9A8F10200234451
:108D6800A3EB0A0389B2B3FBF9F809FB183308FB34
:108D78000EFE41EA03418E452CD9611808F1FF33F4
:108D880004D28E4502D9A8F10203214443EA0040E7
:108D9800A1EB0E01A0FB02984145CE46434602D303
:108DA80006D14D4504D20138B9EB020E68EB040335
:108DB800002EA7D0B5EB0E0261EB030101FA0CFC03
:108DC80022FA07F3F9404CEA0303C6E9003199E7B0
:108DD8004046C5E74346D9E710F8012B11F8013B97
:108DE800012A28BF9A42F7D0D01A7047034613F8D1
:108DF800012B002AFBD1181A013870470000000027
:108E08002DE9F04188B006F08BFF20B101215A4AC4
:108E18005A4810F0B3FD01F089FF40B10121584ACA
:108E2800564810F0ABFD002008B0BDE8F081554869
:108E380006F0A6FF20B10121534A504810F09EFDCC
:108E480002F0C2F810B1514A0321E9E702F01EF915
:108E580008B14F4AF8E700244E4B4F4E93E8030001
:108E680002F0D4FA4D4DD6F8088040F20673ADF8FA
:108E7800043001AB029301230022039306930723D6
:108E8800ADF800208DF81020CDF814D08DF81C30E6
:108E980038230222D8F808703F4802A9B84728B1F9
:108EA80038219DF804203E480FF06CFE0DF10503B3
:108EB8000022029301238DF810200DEB0302CDE967
:108EC8000523039307238DF81C30B36802229F689B
:108ED8003046382302A9B84728B138219DF8052023
:108EE8002F480FF04FFE9DF800309DF8012003F049
:108EF800F00303EB0223B3F5004F4FEA2310A8BF9A
:108F0800A0F58050FFF76EFA22462B46FFF7D4FAF9
:108F180017A3D3E90023FFF7CFFA0022214BFFF76D
:108F280015F9FFF7A1FD204B186002F057FA002849
:108F38000ADA11F0ACF9036801211C4A0F4810F055
:108F480026FD02F05DFA6EE705D10321184A0B48A9
:108F580010F014FD89E702F03BFA002885DA0121B8
:108F6800144A064810F00AFDEBE700BFAFF3008093
:108F7800CDCCCCCCCCCCFC3FFAE6010024DE010001
:108F88001FE70100FDAB00003DE7010066E70100B7
:108F980084E7010018E00100E8DB01000000B03FB1
:108FA800A0E701000000404080C50020D9E701008B
:108FB800F0E70100FFE701002DE9F04F8246164671
:108FC8001C4600259FB00391307810B9284600F060
:108FD80085BD731C2528069306D00399D047002821
:108FE800C0F27C8501351BE21822002110A813F07D
:108FF800DCFF7378252B00F0BA80002398469E4644
:109008009C461846711C0F4611F8012B2B2A00F0BC
:10901800DD8000F2D480202A00F0DB80232A00F0D3
:10902800DB802BB19DF8483043F040038DF8483081
:10903800B8F1000F05D09DF8483043F020038DF8B3
:109048004830BEF1000F05D09DF8483043F01003BA
:109058008DF84830BCF1000F05D09DF8483043F03A
:1090680008038DF8483028B19DF8483043F00403D0
:109078008DF848309DF8483003F04401442903D165
:109088006FF386138DF848309DF848302A2A43F04C
:1090980080030E978DF8483040F0A3809DF8493042
:1090A80043F001038DF849307B1C1A782E2A0CBF37
:1090B800012100219DF8492061F341028DF84920E2
:1090C8000CD15A1C0E925A782A2A40F09A809DF8A0
:1090D8004920023342F004028DF849201A786C2A9C
:1090E80000F0BB8000F29D80682A00F0A3806A2A05
:1090F80000F0BC804C2A00F0C18013F8012B782ABC
:1091080006938DF84B2000F201816D2A00F2C3808E
:10911800692A00F2FB80572A00F2DA80412A04D03B
:10912800A2F14503022B00F2F18004219DF84A3098
:1091380002F0DF02A2F1410761F302037A429DF8CF
:1091480049107A4162F3C7110A068DF84A308DF842
:109158004910CBB200F1198103F07802182A40F0C7
:1091680003816FF3C6038DF849300023F2E0B21C87
:1091780006928DF84B309DF84930D90740F10781A8
:1091880054F8042B002A049208DA9DF8482042F08B
:1091980004028DF84820049A524204925A0740F17A
:1091A800FE8054F8047B002F80F2FD809DF8493042
:1091B8006FF341038DF849304FF0FF37F3E02D2A64
:1091C8000DD0302A7FF42DAF01231CE74FF0010C9E
:1091D80019E74FF0010E16E74FF0010813E70120D9
:1091E80011E70EA802F0BEFE0E9BBB423FF45DAF36
:1091F8009DF848201390C00F60F341028DF8482075
:1092080053E70EA802F0AEFE9DF848301490C3F361
:10921800400242EAD07262F341038DF848300E9B57
:109228005CE7742A26D07A2A7FF467AF06219DF876
:1092380049200CE05A78682A9DF8492006D1012176
:1092480061F3C6028DF84920023356E7022161F323
:10925800C6028DF8492001334FE75A786C2A9DF8E9
:10926800492001D10421EBE70321F0E705219DF80E
:109278004920ECE707219DF84920E8E7BDF8482098
:1092880022F4F04222F0020242F4804242F002024A
:10929800ADF84820DFE76E3AD3B201229A4040F297
:1092A80082431A429DF8493037D112F0240F5FD11A
:1092B800D1072BD503219DF84A2003F07803A3F1A9
:1092C800400061F3020243428DF84A20434141E0E5
:1092D8000120A2F15801C9B200FA01F111F4624F5C
:1092E8007FF423AF40F6010319429DF849301AD1A3
:1092F80011F4043F0AD09DF84A2060F3020203F0FB
:109308007803402B8DF84A207FF42FAF9DF8483022
:1093180043F001038DF8483027E702219DF84A20E1
:1093280061F30202EBE702209DF84A1003F078038C
:1093380060F30201402B8DF84A1002BF9DF84810D7
:1093480041F001018DF84810632A7FF40EAF003B0D
:1093580018BF01239DF84820C2F340010B4363F373
:1093680041028DF8482006E713F0380FCED1FCE60D
:1093780003219DF84A2013F0780F61F3020214BF0D
:10938800012300238DF84A20E4E70123E2E79DF951
:109398004820002AACBF4FF0FF32139AFDE69F0722
:1093A8007FF50AAF149F00239DF84A20CDE91333B7
:1093B80002F00703042B9DF8493007D1980705D41C
:1093C8009DF949100029ACBF06270D2702F00702B6
:1093D800012AC3F3C30333D1DA1E042A04D8DFE811
:1093E80002F02146462121002268012B4FEAE27152
:1093F800CDE910211CD19DF94020D117CDE91021CC
:1094080004349DF848209107079250D032465046C0
:10941800069B03990FF0AEFF0028C0F25F83054456
:10942800069ED1E554F8042BD117CDE91021E8E7C1
:10943800022BE5D111B242F3C032CDE91012DFE7B9
:10944800022A24D1DA1E042A04D8DFE802F0181010
:1094580010181800012B4FF0000154F8042B14D0F9
:10946800022BCDE91021CCD192B21092C9E7073472
:1094780024F00704F4E80201CDE91001C1E754F82B
:10948800042B109200221192BBE7D2B2CDE7042A36
:1094980008D1073424F00704D4E900010834CDE9E1
:1094A8001001AEE7032AACD154F8042BDDE79DF890
:1094B8004BB0BBF1780FB3D8BBF1570F49D8BBF10C
:1094C800250F00F09180BBF1240FA9D9BBF1410F02
:1094D80003D0ABF14503022BA2D8DDE91013002B12
:1094E800C0F23781079A160700F13681C2F30019D6
:1094F8004FEA4919C3F30A50C3F31303002840F095
:109508002E8151EA030614BF01260026DB0243EA36
:109518005153C902BBF1460F40EA010E43EAE07C11
:1095280008BF4FF0660B5EEA0C0CCDE90C1300F097
:109538009C81002E40F04A810D9BA0F2FE3843F03A
:1095480000430D930020DDE90C1306464FF0050C8F
:1095580056E1ABF1580120293FF662AF01A050F85F
:1095680021F000BFF996000029940000299400001A
:1095780029940000299400002994000029940000EF
:109588002994000029940000E39400002994000025
:109598007D96000091960000E3940000E39400009B
:1095A800E39400002994000091960000299400009B
:1095B80029940000299400002994000033970000A2
:1095C800F9960000FF9600002994000029940000F5
:1095D800F795000029940000F996000029940000EE
:1095E80029940000F996000058460399F6E4002FE4
:1095F800109E3BDB3946304613F0A5FE002E3FF4A3
:109608000FAF4FF000093718BB1B9DF84A2012F026
:109618001001059100F05782023312F04002DDF884
:109628004C80089218BF149A434418BF9B18049A98
:10963800CDF81C80002A40F36182D31A04939DF868
:1096480048305807C3F3800B00F15882590640F19F
:109658004882B9F1000F07D048460399D04700283F
:10966800C0F23C82D946013530233BE23046FFF751
:10967800BDFBC6E7109B4FF000098DF85C300DF17B
:109688005D07012317AEC0E7079B1A0754BFC3F352
:1096980000194FF02B09DDE9102358BF4FEA49198B
:1096A800002B06DA4FF02D09524263EB4303CDE954
:1096B8001023DDE910010DF17503009312AA17AB11
:1096C80002F066FC0646002F0CDB9DF848200DF1E1
:1096D80075039B1B6FF386129F428DF8482001D9B2
:1096E800FB1A1393002E3FF49BAE0DF175075BE058
:1096F8004FF00009DDE71098002800F0DF810DF138
:1097080075030093002117AB12AA02F041FCBDF8C3
:109718004A30064603F0EF0343F4F04343F01003E6
:109728004FF00009ADF84A30CDE7109A072B3FF605
:1097380077AEDFE803F00C04060C08080C0C157073
:109748006EE615806CE6EB17C2E9005368E6156013
:1097580066E64FF02D09CDE64FF02B09CAE640F238
:10976800FF76B0422FD1A0480BF10102D2B2825C41
:109778000B4302F003021ED1012A0BBF49236923C0
:109788004E216E210CBF462266228DF85C309DF872
:1097980048308DF85D106FF386138DF85E208DF8D4
:1097A80048300DF15F0717AEBB1BB9F1000F3FF44E
:1097B8002CAF013329E7012A15BF6E234E236121FF
:1097C80041211A46E1E70026A0E6013849185B4125
:1097D800002BFADACDE90C13AEE6490841EAC37169
:1097E8005B08B3F1333F404608F10108F5D200F1B8
:1097F800020801200CFB03FEA1FB0C13013E73447D
:1098080018F1020FE9DB08B1CDE90C13DDE90C31E1
:10981800B8F1000F2CDCC8F10400A0F1200C08F10D
:109828001C08C34001FA08F821FA0CFCC1400BF0EF
:10983800DF0043EA0803472843EA0C0338D1F01C49
:1098480001DBB7422ADAABF10202002F5FFA82FB92
:109858007BDD9DF84800013F820676D43A1E18BF8A
:109868000122059207F101082CE04FF0000869E693
:10987800023341F100010CA808F1FF380136CDE9A7
:109888000C310FF048FDDDE90C31DB1849410029A6
:1098980008F1FF38F9DACDE90C31B7E79DF848202F
:1098A800BF1B90064FD43A1E18BF0122059204E050
:1098B8000022BBF1660F0592D4D117EB06084FF0D2
:1098C800660B44D4B8F1100FA8BF4FF010089FEDF5
:1098D800447B10208DED0E7B0B90DDE90E02B8F174
:1098E800000F37D1C01842EB0103B3F1805F41D2BA
:1098F800CDE90C03079BBBF1660F03F0200340F092
:10990800BC80002E41DC30218DF85C10002B6DD11D
:10991800002F40F3B4812E238DF85D3086B1734259
:10992800BB42A8BF3B46002B1393A7EB0307D4BF4A
:10993800002301239DF84A1063F345118DF84A105E
:109948000DF15E0839E00022B0E7002289E74FF008
:109958000008BCE7400840EAC2705208CDE90E0290
:109968000EA8CDE9083108F1FF380FF0D4FCDDE985
:109978000831B2E7400840EAC3705B08CDE90C0340
:109988000CA80FF0C8FC0136B4E70DF15C080B9980
:10999800002909DD0BA90CA807930FF0D4FC013EA0
:1099A800079B08F8010BF2D113969BB9002F40F3DF
:1099B80064812E2108F8011B0026002F1FDD0B9B58
:1099C800002B1CDD0BA90CA80FF0BDFC013F08F80B
:1099D800010BF2E72E2308F8013BEDE7AFF3008017
:1099E8000000000000000008CA0D02002E238DF8B8
:1099F8005D30002EA4D0002F91DC0DF15E08059B90
:109A0800002B4ED1149747460BF0DF03452B23D18B
:109A1800002EBABF76422D232B23632EC8BF6421A4
:109A28007B70C4BFB6FBF1F301FB13664FF00A016C
:109A3800C8BF03F13000B6FBF1F3D2BFBA1CFA1C61
:109A4800B87087F800B0174603F1300001FB1363C4
:109A5800303307F8020B5370139B002B2CDC149B3C
:109A6800002BD4BF002301239DF84A2063F38612FC
:109A780000238DF84A203B7095E60BA90CA80793A4
:109A88000FF061FC079B30288DF85C0018BF06F1C9
:109A9800FF3613B9002F40F3F2802E238DF85D3086
:109AA8004EE7474617F8013C08F1FF38302BF8D04D
:109AB8002E2B08BF4746A7E70123D5E7714F8146FC
:109AC80005237E1FA1E5110748BF0133A5E5184608
:109AD80009930399D0470028099B05DA1FB0BDE810
:109AE800F08F2023DDF810B05A46002A0BF1FF3B17
:109AF800EDDC049BCDF810B02B449D1AB9F1000F92
:109B080005D048460399D0470028E7DB0135089B74
:109B1800002B77D09DF94930002B28DB3346DFF83E
:109B2800689118789B4619F80020013352073FD4F2
:109B38009DF84A30AE1B98065E4407D44246002A78
:109B480008F1FF383BDC079B33449E1A9BF8000062
:109B58002E280AD10399D0470028BFDBB8F1000F9F
:109B680006F1010631DC0BF1010B5D4638E0B14628
:109B780099F80000C846702809F1010913D1AE1BF5
:109B8800149D46443544AB1B002B33DC3B46424610
:109B9800504603990FF0EEFB00289FDB3044049EEB
:109BA8000546064464E00399D0470028E0DA95E7C3
:109BB80005930399D0470028059BB2DA8EE7302039
:109BC8000399D0470028B9DA88E730200399D047AD
:109BD80008F1FF38C0E70399D0470028FFF67EAFA9
:109BE8002878A84619F8003001355907F3D4A6EBB0
:109BF8000B06C5E730200399D0470028FFF66EAF63
:109C08000136C0E79DF84A30DA0601D41B0706D5AD
:109C180030200399D0470028FFF660AF0135059B37
:109C28003BB103999DF84B00D0470028FFF656AF8B
:109C38000135A84406E030200399D0470028FFF6F4
:109C48004DAF0135A8EB0503002BF4DC3B4632464B
:109C5800504603990FF08EFB0028FFF63FAF2844CB
:109C68009DE720200399D0470028FFF637AF01353C
:109C7800731B002BF5DCFFF7D3BB1E46BFE60DF1C7
:109C88005D08BCE694EE0100CB0D02000000000068
:109C980070B52DED028B002386B0CDE90433042383
:109CA8000D4606460193002800F0B480002900F014
:109CB800B180062104A811F0C4F8044650B1034647
:109CC8000121594A594811F01CFA204606B0BDEC4A
:109CD800028B70BD014604AA304611F08DF8044687
:109CE80048B10346524A0121504811F00AFA04A823
:109CF80011F0D1F8E9E76A46012104A811F07DF9CD
:109D0800044610B103464B4AEDE7009BB3B1042B60
:109D18001DD0052B0CBF0923FF232B70032101AB9A
:109D280002AA04A811F095F9064690B10346424AE2
:109D380001213E4811F0E5F93446D8E7DFED3F7AD6
:109D48000023C5ED017A2B70C5ED027ACFE7072312
:109D5800E3E7019B002BF1D018336B4403F8100C98
:109D68000146022202A80DF09FFB2B78C0B2092BF6
:109D780006D10F2825D96FF015042346304AB2E7DB
:109D88000F28F8D8072B24D19FED2E8A2E4B33F8B5
:109D98001000E0B1FEF726FB21A3D3E90023FEF76C
:109DA8008BFBFEF761FE042168600DEB010302AA3C
:109DB80004A8019111F04DF9064668B10346234AFB
:109DC800B6E7234B9FED238A33F81000E1E72248DA
:109DD800E9E76FF07F04D0E7019B014618336B4435
:109DE80003F8100C022202A80DF05EFBC3B20F2B81
:109DF80007D90121194A0D4811F083F96FF01504AC
:109E080075E70133DBB207EE903AF8EEE77A67EED2
:109E1800887A99E76FF0150457E700BFAFF3008021
:109E28007B14AE47E17A2440210002007CDE010069
:109E38004A000200730002009500020000000000C2
:109E4800C10002000AD7A33FD4E60100E5000200E2
:109E5800B4E601000AD723400AD7A3401001020044
:109E68002DE9F0472DED028B04469FED498B4A4EB4
:109E780084B04FF02003EFF3118783F31288BFF308
:109E88006F8FD4F8C8508DB9022104F1E00012F0A8
:109E98004DFD002843D100238DED008B39460293F8
:109EA80004F1D0023D480CF06DFAE2E7D4F8CC207A
:109EB8002B689542C4F8C83008BFC4F8CC30D4F831
:109EC800E03043F00203C4F8E030EB6823F0040309
:109ED80043F00103EB606B6887F31188BFF36F8F62
:109EE800284698474FF02003EFF3118983F312882F
:109EF800BFF36F8FEB68990723F0010219D4EA606A
:109F0800D4F8E03023F00203C4F8E03089F3118874
:109F1800BFF36F8FDB05ACD40CF092F9A9E704F11D
:109F2800D80500220121284612F0A0FE0028F8D109
:109F3800B1E7306823F00303EB600028E0D0002786
:109F4800BA46D0F800800028DAD042680146954227
:109F58000BD1016897B972683160824200D1716093
:109F680040F808AB0BF09CFD3946B8F1000F0BD058
:109F7800D8F8002040460F469046E4E739607268FA
:109F8800824208BF7760EBE74246F3E7AFF3008011
:109F9800FFFFFFFFFFFFFFFF5CDC0020CCE7002096
:109FA8002DE9F04F476A97B08346209E08910C929E
:109FB800129355EC104B8DED000B7FB910200CF06F
:109FC80067FC0246CBF8240020B9A74BEA21A74832
:109FD8000EF0F2F9C0E901770760C760DBF82430BA
:109FE800196859B15A680123584693404A608B60F2
:109FF8000DF024FBDBF8243000221A602B1EB7BFBB
:10A0080023F00043002301220193A8BF3360019F7E
:10A01800974BB8BF3260BB4319D142F20F73129A03
:10A028001360C7F31303234300F0DB85219B53B967
:10A03800904B21E0904B03930833219A13600398C7
:10A0480017B0BDE8F08F8B4B03930333F5E79DED15
:10A05800007B0022002351EC170B8DED0A7BFEF7E5
:10A0680093FC804650B10123129A1360219B13B1CF
:10A07800824B219A1360824B0393E0E7C7F30A5699
:10A0880014AA15A958469DED0A0B0DF05FFD029024
:10A09800002E76D00B9BA6F2FF36CDF84C80C3F38A
:10A0A800130343F07F53DDE90A0143F440131946D3
:10A0B8000022744BFEF748F865A3D3E90023FEF7A6
:10A0C800FBF965A3D3E90023FEF740F804460D46E3
:10A0D8003046FEF787F962A3D3E90023FEF7ECF9CF
:10A0E80002460B4620462946FEF730F804460D4640
:10A0F800FEF792FC00220746002320462946FEF779
:10A108004DFC40B13846FEF76DF922462B46FEF766
:10A118003BFC00B9013F162F52D85B4B03EBC7033A
:10A12800DDE90A01D3E90023FEF738FC002849D00D
:10A13800013F00231193149B9B1B5A1E4CBFC3F174
:10A1480001030023079245BF069300230693079354
:10A15800002F39DB079B10973B4407930023099393
:10A16800089B092B66D8052BC5BF043B0024012496
:10A178000893089B023B032B67D8DFE803F02D3ACE
:10A188003859DDE914631E4406F23243202BC9BF57
:10A19800C3F14003C3F120039F4006F21243D8BF26
:10A1A80004FA03F006F1FF36C4BF24FA03F347EAC2
:10A1B8000300FEF707F90122A1F1F873139276E77D
:10A1C8000123B7E71190B6E7069BDB1B06937B429A
:10A1D800099300231093C3E700230D930C9B002BD6
:10A1E80056DC012399461A4604930C920CE001238D
:10A1F800F3E700230D930C9BFB1803F1010904936B
:10A208004B46012BB8BF0123DBF8240000210422B0
:10A2180002F114059D423FD9416058460DF0CEF930
:10A22800039000283BD1194B02464FF4D571CEE676
:10A238000123DFE7012400230D9408934FF0FF3337
:10A248000022994604931223CFE701230D93F5E7E3
:10A2580061436F63A787D23FB3C8608B288AC63F24
:10A26800FB799F501344D33F060F02001D0F0200D5
:10A278000000F07F020F0200F90E0200B6FF010095
:10A28800B5FF01000000F83F50DF0100790F020020
:10A298000C9B99460493B7E701315200B8E7DBF805
:10A2A8002430B9F10E0F039A1A606FD8002C6DD0C4
:10A2B800002F36DD07F00F02A04BF8054FEA2714F0
:10A2C80003EBC20393ED007B8DED0E7B17D59C4B02
:10A2D80004F00F044FF00308D3E90823DDE90A016D
:10A2E800FEF714FACDE90001954D5CB9DDE90E23BE
:10A2F800DDE90001FEF70AFACDE900012BE04FF095
:10A308000208F1E7E10709D508F10108DDE90E01C6
:10A31800D5E90023FEF7D0F8CDE90E016410083521
:10A32800E3E700F007817C42844B854D4FF002083B
:10A3380004F00F02241103EBC203DDE90A01D3E99B
:10A348000023FEF7B9F80023CDE90001002C40F006
:10A35800E580002BD0D1119BDDE90045002B00F0F2
:10A368004C810022774B20462946FEF717FB002830
:10A3780000F04381B9F1000F00F03F81049B002BEE
:10A3880000F3E480DDE90A34CDE90034159B002BA5
:10A3980002DB0E2F40F342820D9A002A40F06782BA
:10A3A800099C0025DDF81880B8F1000F0DD0079B37
:10A3B800002B0ADD4345069AA8BF4346D21AA8EBEC
:10A3C80003080692079AD31A0793099B0BB30D9BB0
:10A3D800002B00F0A682002C00F0A182294622461C
:10A3E80058460DF055FA029A0146054658460DF0B2
:10A3F800A5F90299064658460DF020F9099B1B1B42
:10A40800099300F09182099A314658460DF040FAB6
:10A418000290012158460DF07BF9109B0446002B51
:10A4280000F084821A46014658460DF031FA089B1E
:10A438000446012B03DC009B002B00F07C820026E5
:10A44800236904EB8303186913F06DF8C0F1200049
:10A458001096079B184410F01F0000F09182C0F17D
:10A468002003042B40F38182C0F11C00069B0344A7
:10A4780080440693079B03440793069B002B05DD46
:10A488001A46029958460DF05DFA0290079B002B78
:10A4980005DD21461A4658460DF054FA0446119B2C
:10A4A800002B00F076822146029813F08BF80028E2
:10A4B80080F26F8200230A22029958460DF0E0F8D4
:10A4C8000D9B7E1E0290002B00F05C820023294623
:10A4D8000A2258460DF0D4F8049B0546002B03DCED
:10A4E800089B022B00F35E82B8F1000F05DD2946B8
:10A4F800424658460DF026FA0546109B002B00F000
:10A50800D082696858460DF059F80746002840F08F
:10A518007F820D4B024640F2EA2158E5E20706D554
:10A5280008F10108D5E90023FDF7C6FF01236410EF
:10A5380008350BE74FF002080DE700BF50DF0100B8
:10A5480028DF01000000F03F790F020020460022BA
:10A55800AC4B2946FDF7B0FF7E1E08F10108049CAC
:10A56800CDE900014046FDF73DFFDDE90023FDF799
:10A57800A3FFA54B0022FDF7E9FDA1F15073CDE93A
:10A588000E010F93002C3BD10022A04BDDE9000106
:10A59800FDF7DAFD02460B46CDE90023DDE90E237F
:10A5A800FEF71AFA002840F05781DDE90E2101F183
:10A5B8000043DDE90001FEF7F1F900283FF4E2AEBF
:10A5C800002425460C9BDDF80CA0DE434FF0000864
:10A5D800214658460DF032F8002D00F0A980B8F158
:10A5E800000F05D0A84503D0414658460DF026F87F
:10A5F800294658460DF022F89AE03E464C46B1E707
:10A60800834B03EBC40353E90201039B1C440D9BDA
:10A61800002B4AD002460B4600207E49FEF776F80A
:10A62800DDE90E23FDF790FDDDF80CA0CDE90E0164
:10A63800DDE90001FEF7F0F90546FDF7D3FE024615
:10A6480030350B46DDE90001FDF77EFD0AF8015BB8
:10A6580002460B46CDE90001DDE90E01FEF7BCF923
:10A66800002865D100206C49DDE90023FDF76CFD69
:10A6780002460B46DDE90E01FEF7AEF9002840F070
:10A688000D81A24500F0EA8000225E4BDDE90E0153
:10A69800FDF712FF00225B4BCDE90E01DDE9000159
:10A6A800FDF70AFFCDE90001C2E7DDE90E23FDF75A
:10A6B80003FFA046DDF80CA0CDE90E01DDE900019D
:10A6C800FEF7AAF90546FDF78DFE024630350B4622
:10A6D800DDE90001FDF738FD0AF8015B02460B468B
:10A6E800A245CDE900234FF0000223D1494BDDE913
:10A6F8000E01FDF72BFD02460B46DDE90001FEF7D2
:10A708006BF9002840F0CA8000204249DDE90E2399
:10A71800FDF71AFD02460B46DDE90001FEF73EF99A
:10A7280070B1C24608F1FF381AF8013C302BF8D056
:10A73800374655E0334BFDF7BFFECDE90001BDE7D5
:10A74800DDE90A34CDE90034159B002BFFF628AE6D
:10A758000E2F3FF725AE2E4B03EBC70393ED007B7F
:10A768000C9B002B8DED047B02DAB9F1000F64D04D
:10A77800DDF80CA0DDE90045DDE904232046294683
:10A78800FDF7C4FFFEF748F90646FDF72BFEDDE9A5
:10A798000423FDF791FE0246204606F130040B46DD
:10A7A8002946FDF7D1FC0AF8014B039C02460B46EB
:10A7B800AAEB0404A14540F08280FDF7C7FC0446DB
:10A7C8000D46DDE90423FEF707F9002865D1204688
:10A7D8002946DDE90423FEF7D7F808B1F3075CD46E
:10A7E800029958460CF02AFF002301378AF80030F6
:10A7F800129B1F60219B002B3FF421ACC3F800A0E3
:10A808001DE400BF0000244000001C40000014406C
:10A8180050DF01000000E03F0000F03FA24B03EBD7
:10A82800C70393ED007B0C9B002B8DED047B9FDA17
:10A83800B9F1000F9CDC7FF4C3AE00229B4BDDE92D
:10A848000401FDF739FEDDE90023FEF7BBF80446F5
:10A8580000287FF4B5AE3E462546B4E0DDE90A346B
:10A86800CDE90034159B002B01DB0E2FD6DD089AAD
:10A87800012A36DC139A82B303F23343099CDDF8CC
:10A888001880069A012158461A440692079A1A44D3
:10A8980007920CF03DFF054686E53E4653469A462C
:10A8A80013F8012D392A06D1039A9A42F7D130229A
:10A8B800039901360A701A7801321A7038E70022B3
:10A8C8007B4BFDF7F9FD0022002304460D46FEF7F9
:10A8D8005BF800283FF450AF82E7149BC3F13603BE
:10A8E800CCE709F1FF34099BA34208DBB9F1000F5B
:10A8F800A3EB04040EDBDDF818804B46C1E7099B87
:10A90800109AE31A0994DDF8188000241A444B467B
:10A918001092B6E7069BA3EB09080023B1E7029E55
:10A9280071E5099A029970E5029672E5089B012B78
:10A9380017DC009BABB9019BC3F313039BB9019BC5
:10A9480023F00046360D360536B1069B0126013345
:10A958000693079B01330793109B002B7FF470AD80
:10A968001096012075E50026F6E73FF486AD1C3306
:10A97800069A1A4498440692079A1A4407927CE564
:10A988000346F4E7049B002B2BDC089B022B09DC15
:10A9980027E0B9F1000F1DDC089B022B1ADD3E46AB
:10A9A800CDF81090049B002B7FF40CAE21460522B5
:10A9B80058460CF065FE01460446029812F002FE65
:10A9C80000287FF7FFADDDF80CA0312301360AF827
:10A9D800013BFBE50D9B3E46CDF81090002B7FF424
:10A9E80083AD039F2146029812F0FEFC039B00F101
:10A9F8003009049A07F8019BFB1A9A4240F3CB806E
:10AA080000230A22029958460CF03AFE0290E9E720
:10AA18002A6905F10C010C300232920012F09EFAFC
:10AA28000122394658460CF08DFF039BA84605467F
:10AA380003F1010ADDE9032313440793009B03F0A4
:10AA4800010309930AF1FF3321460298049312F097
:10AA5800CBFC4146069000F13009029812F0B2FD95
:10AA68002A462146074658460CF0D8FFC2680146D8
:10AA780002B358460CF0E2FD002F3ADA012202999F
:10AA880058460CF05FFF2146029012F09BFD00280B
:10AA980003DC29D119F0010F26D0B9F1390F1DD1E6
:10AAA80032E02846C1E700BF50DF01000000144033
:10AAB800000024400A90029812F084FD0A990C9034
:10AAC80058460CF0BBFD0C9A5ABB089B53B9099B1E
:10AAD80043B9B9F1390F17D0002F05DD069B03F1F3
:10AAE800310901E0002F2ADADDF810A00AF8019BED
:10AAF8006EE5089B3B4304D1009B03F00103002B48
:10AB0800BCD0B9F1390F36D1049F392307F8013B7E
:10AB1800BA46013F1AF8013C392B5AD001333B7031
:10AB280056E5002F06DB089B3B4306D1009B03F04C
:10AB3800010313B9002AA1DCD6E7002AE1DC079B50
:10AB480057460AF8019C53452ED000230A22029941
:10AB580058460CF095FDA84502904FF000034FF0C1
:10AB68000A02414658460BD10CF08AFD804605463C
:10AB78000AF1010A66E7DDF810A009F10109B5E755
:10AB88000CF07EFD2946804600230A2258460CF028
:10AB980077FD0546ECE7049B4FF00008002BCCBF7F
:10ABA8001F460127039B1F440122029958460CF0B7
:10ABB800C9FE2146029012F005FD0028A8DC02D14A
:10ABC80019F0010FA4D1BA4617F8013D302BFAD07D
:10ABD800FEE4039BBB429BD13123039A01361370D9
:10ABE800F6E4219B002B7FF425AA014BFFF744BA1A
:10ABF800F90E0200CA0716D5C30714D51F4BDFED9F
:10AC0800207A93ED021A31EE271AD3ED031A83ED59
:10AC1800021A71EEE71A93ED000AD3ED010AC3EDAB
:10AC2800031A00F06FBA8A070FD583070DD5134BA7
:10AC3800DFED137A93ED021A31EE271AD3ED031ADA
:10AC480083ED021A71EEA71AE5E74A0709D543070B
:10AC580007D50A4BDFED0A7A93ED021A31EE671A2F
:10AC6800D3E70A0709D5030707D5044BDFED047AB4
:10AC780093ED021A31EE671AE0E7704780C50020AD
:10AC88008FC2F53C98B5037800AF1BB1032B20D0D9
:10AC9800BD4698BD037A012B19D0052BF8D11A4B64
:10ACA8006C4688B06A461949C2E905134FF4007327
:10ACB8009383174B42F8103F00234FF4E651154891
:10ACC80001F03CFCA54614480AF0EAFEE0E7134B05
:10ACD800E6E7017A124A134B6C4688B0012908BF8F
:10ACE80013466A461049C2E905134FF4007393836B
:10ACF800074B42F8103F00234FF4E651054801F096
:10AD08001DFCA546C4E700BF3BE801005EE8010062
:10AD1800030000011CDE0100D0CA002022E8010067
:10AD28004FE8010059E801007EE8010010B5032151
:10AD3800164A17480EF022FE04F024F9044638B1EA
:10AD48000346144A012112480EF021FE204610BD88
:10AD58000321114A0E480EF011FE104810F0B5F903
:10AD6800044610B10E4A0346ECE74FF0FF324FF0AD
:10AD7800FF330C480AF0BAFE03210B4A04480EF0D0
:10AD8800FDFD012010F012F8E0E700BF8BE801009C
:10AD98001CDE0100A6E80100D8E801008DAC000027
:10ADA800F2E80100D0CA00201BE901002DE9F043B8
:10ADB8002DED068BC9B0E84602AF88B00646F0EE26
:10ADC800409AB0EE609AF0EE418AB0EE618A87ED63
:10ADD800000AC7ED010A87ED021AC7ED031A02AC93
:10ADE8009FED6BAA70EE0A7A6A4B17EE900A6361C0
:10ADF800FDF70AFB4FF004092546C4E9060145F8AA
:10AE0800109F00232A464FF40351634801F096FB34
:10AE180079EE0A7A614B17EE900A6361FDF7F4FA4E
:10AE2800C4F81090C4E9060100232A464FF40351E0
:10AE3800594801F083FB78EE8A7A594B17EE900A4D
:10AE48006361FDF7E1FAC4F81090C4E90601002334
:10AE58002A464FF40351504801F070FB78EE0A7A05
:10AE6800504B17EE900A6361FDF7CEFAC4F81090C4
:10AE7800C4E9060100232A464FF40351464801F06D
:10AE88005DFB07F15002C5461446474B03F1280CF9
:10AE9800154618685968083303C563452A46F7D12B
:10AEA80018689B889A22AB802860002107F17E00F1
:10AEB80012F07BF819EE900AFDF7A6FA3B4ACDE9A5
:10AEC80000010E2107F110000DF069FE19EE100ABD
:10AED800FDF79AFA354ACDE900010E2107F1200065
:10AEE8000DF05DFE18EE900AFDF78EFA304ACDE9B6
:10AEF80000010E2107F130000DF051FE18EE100A86
:10AF0800FDF782FA2A4ACDE900010E2107F1400037
:10AF18000DF045FEC8222046264912F0A6F907F191
:10AF28001001C822204612F0A0F9C8222046224962
:10AF380012F09BF907F12001C822204612F095F97A
:10AF4800C82220461D4912F090F907F13001C822A5
:10AF5800204612F08AF9C8222046194912F085F9CC
:10AF680007F14001C822204612F07FF9C822204686
:10AF7800144912F07AF92146304612F09BF9002064
:10AF880007F58E77BD46BDEC068BBDE8F08300BFA4
:10AF9800000000003FE9010014DE010053E9010050
:10AFA80067E901007BE90100D7E9010061E90100D7
:10AFB80075E901008FE90100A1E90100AFE901008D
:10AFC800C0E90100D2E90100F0B59BB000AF502202
:10AFD800002107F1180011F0E8FF012502230021E4
:10AFE800C7E9085322483B1D07F118020FF051F931
:10AFF800044658B1034629461E4A1F480DF055FD20
:10B008006FF0040420466C37BD46F0BD7B683BB941
:10B018001A4A294618480EF0B1FC6FF00104F1E70E
:10B028009B6917495B680D804B6043F216334B8070
:10B0380007F10806102332462846043102F09AFD2B
:10B048006D4688B06B460F4AC3E905264FF4007277
:10B058009A831A460C4B42F8103F4FF4E6512346A8
:10B06800054801F06BFAAD4678680FF014F9C9E7A6
:10B0780005EA010012EA010014DE010030EA0100CD
:10B0880080DC00204AEA01000300000108B5112213
:10B098000221012002F0BEFC134A002810600CDADD
:10B0A8000FF0F5F8114A0368012111480DF0FDFC75
:10B0B8000FF0EDF80068404208BD08220D490FF076
:10B0C80014F9002804DA0FF0E2F80B4A0368EBE7FA
:10B0D80003210A4A06480EF051FC02F087FC084B8F
:10B0E80018800020E8E700BFA8D3002061EA01002B
:10B0F80014DE010080DC002084EA010099EA0100E6
:10B1080098DC0020F0B591B08DED060ACDED070A68
:10B118008DED081ACDED091A02F068FC5E4E022783
:10B128000025308001F00AFD012304904FF4A0624D
:10B13800CDE902675949019700950CA80EF095FED4
:10B14800041E08DA2346564A012156480DF0ADFC84
:10B15800204611B0F0BD1B230B21534A0CA80EF05A
:10B16800D2FE041E02DA2346504AEDE701230C21E1
:10B178000DF12A020CA88DF82A500EF0C4FE042303
:10B1880040F20B118DF82B300DF12B0201230CA886
:10B198000EF0B9FE041E02DA2346454AD4E703231B
:10B1A8003946444A0BA80BF091FF0BA8FDF71EFE89
:10B1B80040F20F1183B20BAA0CA80EF0A4FE041ED5
:10B1C80002DA23463C4ABFE73C48FDF70FFE40F24F
:10B1D800171183B2394A0CA80EF095FE041E02DA44
:10B1E8002346374AB0E702F001FC0921C3B2354AC9
:10B1F80035480BF06BFF3448FDF7F8FD40F21B11A2
:10B2080083B2314A0CA80EF07EFE041E02DA2346F1
:10B218002E4A99E70CA80EF007FF041E02DA23460F
:10B228002B4A91E79DED060ADDED070A9DED081A08
:10B23800DDED091A2748FFF7B9FD2648FDF7D6FDC9
:10B24800244982B20CA80EF0F9FE041E02DA234645
:10B25800214A79E7214B0C991868BDF834202B4610
:10B26800CDE900550FF06CF800280CDA0FF00FF854
:10B27800012103681A4A0B480DF017FC0FF007F874
:10B288000468644264E703213388164A05480DF0D0
:10B298000CFC2C465CE700BF98DC0020ABDC0020EF
:10B2A800BAEA010014DE0100DBEB01007EEC0100CC
:10B2B800ACEC010094EB010014EB0100E4C80020A1
:10B2C80040EB0100BEEF0100A2DC00206BEB0100A7
:10B2D800F7EB0100ABE100201BEC0100A8D3002034
:10B2E80038EC0100D7EC01000023F0B5ABB002AF99
:10B2F8008AB20093014607F110000EF0A8FE041E62
:10B3080009DA234601212A4A2A480DF0CEFB2046B5
:10B31800A437BD46F0BD07F1080107F110000EF093
:10B32800F3FE0228024605D1234807F1080111F06F
:10B3380005FE48B17B7A3A7A012100921D481F4ADE
:10B348000EF02FFB0024E2E7B91D07F110000EF004
:10B35800EFFEF988034607F1200421B30131802963
:10B3680028BF80212046164A0BF0B0FE07F11000D6
:10B3780001F0B4FB6D468CB0797A3B7A02AAC2E937
:10B38800071340F203530F4E13850F4BC2E90560B4
:10B39800546242F8103F00234FF45351054801F01E
:10B3A800CDF8AD46CEE72046084911F083FFDDE72A
:10B3B800FDEC010014DE010098DC00201DED010009
:10B3C8008DFC010046ED01000600000140ED010082
:10B3D80001460148FFF788BFABDC002007B5064BE4
:10B3E800186800234FF4A062CDE9003303490EF03A
:10B3F800DBFF03B05DF804FBA8D30020ABDC002022
:10B40800014B18680EF04DBFA8D3002070B586B068
:10B418006B4683E803000446BDF8045011F04FF969
:10B4280030B921680F4806B0BDE870400DF0AABBDE
:10B4380040F20443ADF8083002AB039302230493AF
:10B448008DF81430A36801229E6820462B4603A974
:10B45800B04728B129469DF8082003480DF092FB13
:10B4680006B070BD8AED0100A5ED01002DE9F04F91
:10B4780091B0009302F004030293C2F3C2030133B4
:10B48800840705460E46DDF868900392059340F060
:10B49800BB81041D30B1072909D86FF01B0011B01A
:10B4A800BDE8F08F01F00706341DC6F10806009BC1
:10B4B8004FF000084FF0040A591E4FF0FF3347467B
:10B4C8000193C3465346CDF810800DB10098206013
:10B4D8000598002800F3E8809848009A824203D330
:10B4E80097488242C0F0E080039AA4EB050E9207C9
:10B4F8004FEA9E0000F103810F2F00F2B180002D6A
:10B5080000F0058107F140020DEB020C019A0CF8DE
:10B51800200C0CF8102C049801300490E7E07A28ED
:10B528005DD84B280ED8472859D829282DD8252842
:10B5380052D054D820287AD02338D0F1000B4BEBC6
:10B54800000B74E04C382E2849D8DFE800F070482A
:10B55800484848484848484848484B484848484860
:10B5680048484859484B4B595959704B6D48704891
:10B57800184B184848827F4B48484B487F000020AA
:10B588004FF0000B4FF0040A38E001222A38C0B20D
:10B5980002FA00F010EA0E0F49D110F0625C2FD1C8
:10B5A80010EA020B43D06046013C5444B4FBFAF461
:10B5B8000AFB04F4002D61D0A3EB050CA4446645F6
:10B5C800FFF46BAF002868D1042B47D159F8043B2E
:10B5D8002360042304342AE0019A013A01924FF0CF
:10B5E800000B24E011F8010C6C2834D1002011F86C
:10B5F800023C83466C2BC5D14FF0080A5346D3E76B
:10B6080009F1070929F00709073424F00704F9E8C4
:10B6180002AB35B106982044B0423FF63EAFC4E9CC
:10B6280000AB4FF0000B08344FF0080A534611F8EE
:10B63800010F002878D0BBF1000F7FF470AF2528E8
:10B64800F5D14FF0010B019B013301934FF0040A30
:10B65800ECE7584694E700208346A5E7082B02D07C
:10B668006FF015001BE709F1070929F00709B9EC84
:10B67800027B84ED007B08230834D8E768B9042BE3
:10B6880002D109F10409A4E7082BE9D109F1070956
:10B6980029F0070909F10809EDE70598013805902F
:10B6A80059F8040B009010E7039A900720D54FF043
:10B6B800010CA4EB050E4FEA9E00BEF5007FCFD229
:10B6C8000F2FCDD8F5B107F140020DEB020E019A0C
:10B6D800C0B20EF8200C0EF8102CBCF1000F3FF48D
:10B6E8001AAF60F07F000EF8200C08F1010801374E
:10B6F800C5F108024FF6DA7E0434069297E74FF058
:10B70800000CDAE7BCF1000F01D00136EFE7029A2E
:10B718000236002AEBD10098CDE90631FDF766FB29
:10B72800DDE906310644E2E7631BB3F5806F97D283
:10B7380045B9A6F10804E018B1E600BFECDA01004B
:10B7480074100200029A9B0828602B709DF8103034
:10B75800C2B1EB7085F80280B8F1000F05D0002265
:10B7680008A8C5F1010C97420ED14FF0000AC5F1A7
:10B7780001030DF1200901930DF1300B574512D14A
:10B78800601B8CE66B70E5E710F8013B190608D5DD
:10B7980004EB0C0E764503F07F03FFF47EAE04F84D
:10B7A800013B0132DFE7B8F1000F03D099F900201F
:10B7B800002A17DB029BD3B11AF80B2004F8012BDF
:10B7C8000022019B981820448642FFF466AE99F83F
:10B7D8000000009904F8010B2046039211F0BEFB0B
:10B7E800039A14440AF1010A09F10109C6E799F814
:10B7F800002055F822300093029B009845F822302B
:10B80800FDF7F4FA421CDCE76FF00D0047E600BFD5
:10B818002DE9F04F95B000AFBB61BB6F0446C3F391
:10B82800C0038A4690F802B07A623B6141B9457814
:10B8380000780BEB80002044554517D8A0EB040A8C
:10B84800E3787B61BBF1000F02D0BB6FD80716D439
:10B858007B6953BB7B6A1BB151462046BA6998473E
:10B86800554628465437BD46BDE8F08F461C30463D
:10B87800FDF7BCFA013030440AF1010ADCE723780D
:10B8880062683B629B00FB603B6AFA6104EB8309D8
:10B898007B6A002B40F0FF80C8460026554609EB1E
:10B8A8000B0AD04551D1D94413E0BB6F9907D1D5C4
:10B8B800237899463B629B00FB60636804EB890927
:10B8C800FB617B6A002B7AD15546BBF1000F4FD143
:10B8D8005E46BB6F13F0050F0CBF4FF0020B4FF025
:10B8E800010B7B6909EB430ABB6F03F002037B6220
:10B8F800D145B6D019F8021B19F8013C54F8238039
:10B90800AB4B984502D3AB4B984538D33B69002BDA
:10B9180042D0F8690DF0FCF800283DD0E8468AB01E
:10B928006A46A54B5361FB69C2E906314FF40073BF
:10B938001384A24B42F8103F00234FF41251A04841
:10B9480000F0FCFD023DC546D2E718F8013B54F86B
:10B958002300FDF74BFAFB6F01303BB1D7F880307D
:10B968009E423EBFFB6F23F816000136054498E758
:10B97800BB6F13F004061CBF7E6AD944A9E73B6974
:10B9880023B1F8690DF0C4F80028C7D1BB6FDA07F6
:10B9980005D4A5EB0B05ABE77B6A002BA8D0404686
:10B9A800FDF724FAFB6F43B1D7F880309E423FBFC2
:10B9B800FA6F431C22F816300136054498E7BBF1AC
:10B9C800000F6ED0BB6F13F004066DD0D84600266A
:10B9D80007F140005A46494611F0C0FA7B69D9443C
:10B9E8005B007B607B6909EB4303BB60BB6F03F0C3
:10B9F80002033B60BB684B4558D1B96F6378B86F99
:10BA0800890748BF002106EB030258BF4FEA5801D7
:10BA1800C507D2B200F19A8010F0040F14BF404657
:10BA28000020FB616270A070E1702046BA69F96875
:10BA38007B6A9847051EFFF614AF3B6A41462370A0
:10BA4800FB69BA6963707B6984F802B0E37007F137
:10BA580040007B6A9847B0F10008C0F2A480FB68F8
:10BA6800AAEB0B01C91A7B684846C91ABA697B6AEE
:10BA780098470028C0F299804FF0000BA84408EBC3
:10BA8800000507F1300AB34562D30021BA690846B8
:10BA98007B6A9847E5E65E464FF0000807F13000FC
:10BAA80098E75E46D84699E7B04697E719F8021B2B
:10BAB8003F4B19F8015C54F82500984202D33D4BDE
:10BAC80098421DD33B6923B1F8690DF021F800288D
:10BAD80090D13B68FBB908F1280307F1280208F167
:10BAE800010003EB020C07F1500308F1020853FAB6
:10BAF80080F00CF8101C5FFA88F800F8105C79E701
:10BB08003B692BB1F8690DF003F800287FF472AF98
:10BB1800BB6FDB0709D506F1280307F12802711C62
:10BB28009E1806F8205CCEB264E7BB6F58077FF515
:10BB380061AF08F1280307F1280208F1010103EBBE
:10BB4800020808F8105C5FFA81F853E7002068E7FC
:10BB58001BF80A3054F8239087F82F30FB6FFBB19D
:10BB680033F81B800121BA697B6A07F12F009847D7
:10BB780000281ADB0544B8F1000F06D14846FDF746
:10BB880035F900F101081FFA88F841464846BA69B4
:10BB98007B6A9847002808DB05440BF1010B72E724
:10BBA800D7F87C80DEE745465BE6054659E600BFE8
:10BBB800ECDA010074100200DBED01000400000162
:10BBC80034DE0100014B1860704700BF90C50020AB
:10BBD80030B5002587B0CDE903010446009503A9D7
:10BBE80005480595FDF7E8F9DDE904309842B8BF46
:10BBF800255407B030BD00BF678B0100032808B586
:10BC080006D90EF044FB092303604FF0FF3008BD4E
:10BC18002822044B02FB0033D3E8AF3F002BF0D0BF
:10BC28000020F4E7B4D3002070B504460E4615464C
:10BC3800FFF7E4FF00280DDB28236343064AD118E9
:10BC48004968316015B10C3313442B6028235C43D9
:10BC5800105970BD0020FCE7ACD3002070B500255A
:10BC68004FF0FF334FF0FF32174809F06BFE174BC8
:10BC7800D3E8AF2F7AB10135042D03F12803F7D1AA
:10BC88000EF005FB17234FF0FF3503600E4809F04F
:10BC98001DFE284670BD28246C43D3E8EF0F013001
:10BCA800C3E8E10F0029F8D1094E331932515A601F
:10BCB80004F10C00304410F0A5FD04F120003044DC
:10BCC80010F0F7FFE2E700BF28CA0020B4D3002035
:10BCD800ACD3002010B40446104628225443094B24
:10BCE8001A191951506048B1C2683AB10C3423444A
:10BCF80040F205125DF8044B0DF015BA5DF8044BDF
:10BD0800704700BFACD300202823434330B50D490A
:10BD180008330B44D3E8AF2F92B1541ED3E8EF5F3A
:10BD2800954204D1C3E8EC4FBCF1000FF6D1F1D134
:10BD3800012A05D12823584300230A180B505360C1
:10BD480030BD00BFACD300202DE9F047058B044679
:10BD58002807904611D4022905F0070540F0CD8048
:10BD680020460DF0EFF978B10138218B042811D85D
:10BD7800DFE800F0C3106D85950001290CBF45F080
:10BD8800100545F02005258388F31188BFF36F8FD0
:10BD9800BDE8F08701F0070AAA4500F0A680002751
:10BDA800B9463E46A368002B00F0BD8041F008016B
:10BDB800218388F31188BFF36F8FA168002900F0F1
:10BDC800BB800D68002900F0B780334652462046F4
:10BDD800D1F80480C047002D76D02B6829461D462F
:10BDE800F0E701F007035A1F012A1BD8002221F0AF
:10BDF8000701062B276889B2C4E9002209D13B460E
:10BE080003E0628B013262831B68002BF9D141F099
:10BE18000201204621830DF095F900287BD041F0DE
:10BE2800200177E0042B0AD121F0070189B22046CE
:10BE380021830DF087F910B141F020012183218B76
:10BE480001F0070AAA4550D00027B946AAE7236996
:10BE580021F0070141F00601062DD3F80090218357
:10BE68002DD1B9F1000F40D041F00801218388F3AA
:10BE78001188BFF36F8F20463949C84729E021F060
:10BE88000701236941F0040189B2042DD3F8049015
:10BE98002183E6D000274FF0040A3E4682E721F0CE
:10BEA8000701236941F0050189B2052DD3F80890EF
:10BEB8002183D6D000274FF0050A3E4672E70027B7
:10BEC8004FF0060A3E466DE72B4687E7B9F1000FAB
:10BED800D1D14FF02003EFF3118883F31288BFF319
:10BEE8006F8F238B23F008032383258BEA062ED537
:10BEF80025F01003238305F007056669218B002EC2
:10BF0800BFF66FAF00232768C4E9003321F00701AB
:10BF180041F001012183218B4FF0000901F0070A4C
:10BF2800AA457FF43FAF002F9BD041F00801218341
:10BF380088F31188BFF36F8F002FC7D03D6839464B
:10BF48003346524620460DF029F92F46F4E7AB0652
:10BF58007FF51AAF25F02003238305F00705FFE6D8
:10BF6800D1910100F0B5024601680A270020074E6A
:10BF78000B461C780131355D6D0701D41360F0BDA7
:10BF880007FB0043A3F13000F2E700BFCB0D02002E
:10BF98002DE9F84F15469A46D378224A6F2B12F8A6
:10BFA80003B080460F460BF0030B29D024D8582B3A
:10BFB8000CBF10260A26DDF828903246002340469A
:10BFC8003946FCF7A1FD092AD4B21ED83034B04551
:10BFD800E4B277F1000709F8014D01D3D14511D832
:10BFE8002B789B0605D5082E15D1AB7843F00803AE
:10BFF800AB704846BDE8F88F03F0F703702BD7E71E
:10C008000826D8E780460F46D7E7BBF1010F0CBFDB
:10C0180037345734DBE7102EEBD1AB7843F01003FD
:10C02800E6E700BFCB0D02002DE9F04704460746BE
:10C038004FF00109DFF8508014B93846BDE8F087A1
:10C0480094FAA4F5B5FA85F509FA05F32E0108EB7B
:10C0580005156FEA030A24EA03042B7B002BEBD0B7
:10C0680058F806301B694BB94644736804222846C1
:10C07800196807EA0A0700F04DFADDE728469847ED
:10C088000028D9D1F0E700BFC4DE010030B5002296
:10C0980089B00F490F4810F071FE002200230024D8
:10C0A800CDE906230E230C4DCDE903344FF440723D
:10C0B8002846CDE90144094B0949009409F08EFB53
:10C0C8000849284610F083FB204609B030BD00BF60
:10C0D800F1C0000058D0002088CB0020C9C3000060
:10C0E800D0E7002095EE0100014809F0D9BC00BF57
:10C0F800B8CA00202DE9F04780461F480F460DF0CA
:10C10800BBFB0646002830D000252846BDE8F0874E
:10C11800237B73B12368DB680BB1204698472368FB
:10C128001B69D3B9636804222046196800F0F2F944
:10C13800013610344C45EBD3B8F1000FE5D0002D93
:10C14800E2D02846FFF770FF0546002FF7D0002100
:10C158004FF4A4700AF0F6F8F1E720469847002853
:10C16800E0D00AFA06F31D43E2E705464FF0010A5C
:10C17800024CDFF80C90DDE75CD40020C4DE01003F
:10C18800D4DE0100014B53F82000704734E0010071
:10C1980008B5034608462BB1044A136000F070FC4A
:10C1A800002008BD6FF01500FBE700BF94C5002014
:10C1B80010B5044C237813B9034809F071FC012326
:10C1C800237010BD73E20020B8CA002010B50446E1
:10C1D80006480DF051FB3CB1054BD3E8EF1F013980
:10C1E800C3E8E21F002AF8D110BD00BF54D40020D4
:10C1F80058D4002000200146034BD3E8EF0FC3E8D2
:10C20800E21F002AF9D1704754D4002070B5FFF717
:10C21800F1FF0546074C084EB44200D370BD636871
:10C228005B792BB123685B6813B129462046984790
:10C238001034F1E7C4DE0100D4DE010010B5044C6F
:10C24800044920460DF0A9F9034B1C6010BD00BF3E
:10C258006CC9002020E001004CD4002008B5002360
:10C26800074A4FF400411370064A07481360074A0B
:10C278001360FFF78DFFBDE80840FFF7DFBF00BF81
:10C2880074E2002054D400207D98010058D4002086
:10C2980001460022002301480DF0A0B96CC9002016
:10C2A80001480DF039BA00BF6CC90020024B0146A5
:10C2B80018680DF083BA00BF4CD4002001480DF077
:10C2C800B9BA00BF6CC9002070B5264B1878002891
:10C2D80047D0FFF7E5FF054670B1234BD3E8EF1FC2
:10C2E8000139C3E8E21F002AF8D1204C204EB4429D
:10C2F8002DD32846FFF7DAFF1E4B1F4C1B68002B77
:10C3080019DD10F0F4FC4FF47A72A0FB020302FB73
:10C318000131C30B43EA4143D4E900209B1A40F2A0
:10C32800E9324FEAD13161EB0001934271F100012A
:10C3380001D3FFF76BFFD4E9003213F57A7342F1AA
:10C348000002C4E90032BDE87040FFF7B7BF636878
:10C358005B7923B12368294620461B689847103427
:10C36800C5E770BD73E2002058D40020C4DE010088
:10C37800D4DE010054D4002050D0002070B50D4DFB
:10C38800297861B90120FFF7B5FE0B4C0B4EB4427A
:10C3980006D3FFF799FF0028FBD101232B7070BD4E
:10C3A80063685B791BB1236820469B689847103403
:10C3B800EDE700BF74E20020C4DE0100D4DE010016
:10C3C80000212DE9F0470846FFF794FE044648B3DC
:10C3D80040F267684FF0000909F0CEFF1A4B186069
:10C3E80030B11A4B1B68092B02DD194809F058FBBC
:10C3F8000025184FDFF858A044B12046FFF714FE77
:10C40800044618B94FF0FF384FF0FF39FFF75CFFCB
:10C41800064628B9B5B942464B46504609F066FB70
:10C428003546E9E74FF0FF384FF0FF39D4E72B687E
:10C438009B691BB100222846114698471035BD421A
:10C44800F5D3E8E7044DFAE750D4002058D400208B
:10C45800B8CA0020D4DE0100C4DE010013B51848B4
:10C468000DF00AFA174B1B787BB14FF02003EFF35E
:10C47800118483F31288BFF36F8FFFF725FF84F3CE
:10C488001188BFF36F8F02B010BD0F4B1B68002BD4
:10C49800F9D050B9002200230C48CDE900234FF40D
:10C4A800004200230AF04CF9EDE70928EBD10748D0
:10C4B80010F070FC064802B0BDE8104009F0F0BA70
:10C4C80058D4002074E2002050D4002058D0002016
:10C4D800B8CA002010B5064B04461B689847214689
:10C4E800A06004480DF0F8F8BDE81040FFF7B6BFAB
:10C4F80094C500206CC90020044A054B9B1AB1EB77
:10C50800D30F34BF52F831000020704714DE010009
:10C51800C4DE0100084B10B4C31A44681B11013370
:10C52800237143689A7101224368196043685A71FC
:10C538005DF8044BFFF73CBEC4DE01002DE9F04F67
:10C548008FB0C1F34A2804AF0D469146B8607B60AE
:10C558000C0DB8F1000F63D000264FF0040B4FF01C
:10C568000A0A07F11403C7F80C80C7E907667E6258
:10C578000193CDF808B0CDF800A007F11C033246AE
:10C588004846F968FFF744F9B0F5006F03461CD335
:10C598006C468AB0D9F8041004AB26481A46C3E999
:10C5A800050140F2FF71D9614FF400711984224BE3
:10C5B80042F8103F4FF4125133462048FFF7BEFFB0
:10C5C800A5462C37BD46BDE8F08FC0F30A0804F134
:10C5D8001700184420F0070080083B60FFF758FE5A
:10C5E80068F35325044690B13B6800F11001C7E990
:10C5F800083607F11403F961CDE900A3CDF808B0B6
:10C6080048460F4AF96807F11C03FFF701F968F378
:10C6180053252A4620467B68B9680DF05FF9D0E7B4
:10C6280004F1170020F007008008FFF731FE0446E8
:10C63800EDE700BFAAEE01000400000164DE01007E
:10C64800B99801002DE9F04F87B00446DDE9105A8A
:10C65800DDE912690F4693469846A6B31021334682
:10C6680052460020CDF80090CDF81490FEF7FEFE5B
:10C67800014605F117000844144B04F007040BF0B9
:10C68800070BE40020F0070003EA412344EA8B1477
:10C6980080081C430391FFF7FBFD44EA0554054657
:10C6A80040B13EB1334652460399CDF80090103060
:10C6B800FEF7DCFE434622463946284607B0BDE869
:10C6C800F04F0DF00BB93146D3E700BF00FE0F0065
:10C6D8000EB403B503AB53F8042B01460448019389
:10C6E8000DF078F902B05DF804EB03B0704700BFB5
:10C6F800059A0100CA0605D48B064CBF02490349B6
:10C70800FFF7E6BF704700BFD7E70100D6E7010093
:10C718002DE9F04F8BB09A46DDE916739DF854B0B9
:10C728000693189B04460D46199E08920593BBF183
:10C73800000F00F0858006F00103099306F0080356
:10C7480007930DF0B3F806F002090246002847D017
:10C7580020468449FFF7BCFF8046B9F1000F08D096
:10C7680016F0440F3ED12A4620467F49FFF7B0FF16
:10C778008044099B53B17D4B204653F82B207C4BBA
:10C788007C49002A08BF1A46FFF7A2FF079B002B27
:10C7980054D0794B204653F82B207849FFF798FF5F
:10C7A8000546089B2BB11A4620467549FFF790FFAE
:10C7B8000544BAF1000F05D0524620467149FFF7EB
:10C7C80087FF05444544002F48D1059B002B4ED1D7
:10C7D800F30700F1C08031462046FFF78BFFB4E035
:10C7E8008046BAE7684B18680028C1D0674B4FF4F9
:10C7F8007A791B684FF46161B5FBF3F5B5FBF0F38B
:10C8080000FB135509FB05F5B3FBF1F2B5FBF0FE90
:10C818004FF03C0C01FB123100FB1E55B1FBFCF341
:10C8280009FB05F5B5FBF0F50CFB1311204600914B
:10C83800CDE901E55649FFF74BFF99E7079DB0E7BA
:10C84800BAF1010F06D1002F65D1059B002B7CD0D2
:10C8580000250CE0002FF8D04E485DE04E483B46DE
:10C8680022464E490CF023F9059B002B69D0DFF8CE
:10C878004081DFF84091059F3146102F204628BFA0
:10C8880010274FF0000AFFF735FF554546DC069B99
:10C89800494620461A78FFF71BFF4FF0010A1AF0A5
:10C8A800070F03D141462046FFF712FF57453CD9F1
:10C8B800069B4946204613F80A20FFF709FF0AF1AC
:10C8C800010ABAF1100FEAD14FF0000A20463449A4
:10C8D800FFF7FEFE5246069B20469A5C314B995C58
:10C8E80011F0970F08BF2E222F49FFF7F1FE0AF12A
:10C8F800010ABAF1100F1DD01AF0070F03D14146F3
:10C908002046FFF7E5FE57455246E4D84146204603
:10C91800FFF7DEFEEBE720485D46A0E741462046EC
:10C92800FFF7D6FE0AF1010AAFE720461F49FFF7D5
:10C93800CFFEC4E7069B3B440693059BDB1B059390
:10C9480099D1BBF1000F7FF443AF20460BB0BDE88F
:10C95800F04F0DF046B82046054A0649FFF7B8FEE5
:10C9680039E700BFEEEE0100F2EE010044E00100FD
:10C97800E9EE01008DFC010058E0010017EF01000D
:10C988001DEF010021EF010064D4002060D40020D5
:10C99800FBEE0100339A0100059A0100DD990100C0
:10C9A80030EF0100CB0D020024FE01002CEF010046
:10C9B8002EEF010026EF01002DE9F0410F884B68AA
:10C9C80005460C4690468E6886B0C7F382175BB161
:10C9D800144A9B1A43F3CF01002920DB2078C0F3C7
:10C9E800C200FFF789FD0346214651F8102B6088E5
:10C9F800C2F34A22002A01EB020408BF00210022E8
:10CA0800C0F30B10CDE90408CDE9021428463146DD
:10CA180001970092FFF77CFE06B0BDE8F081002385
:10CA2800E2E700BF14DE010042F20F7373B58B42D8
:10CA380028BF0B4605680446052168460D4A0CF0D8
:10CA4800AEF80646636828460B225B680A490CF074
:10CA5800B4FF63683246694628465B680CF0ADFF50
:10CA680063681B2228465B6804490CF0A6FF02B0E5
:10CA780070BD00BF94EB01004EEF010032EF0100E2
:10CA880000210123064A904206D8064A01B901232B
:10CA98001360054B18607047012140085B00F2E7FE
:10CAA80040420F0060D4002064D40020F8B50D4641
:10CAB8000446064F4618B44201D12846F8BD14F87A
:10CAC800011BBB6801485B689847F4E7D4DB0100A9
:10CAD800014B036000207047A0E0010018B3006814
:10CAE80008B34078A5281DD8872805D85F281AD00C
:10CAF80013D807280AD8704700F178020A4BD2B237
:10CB0800D34013F0010F08BF00207047A0F1400385
:10CB1800DBB2062B28BF00207047A0F18003DBB2F0
:10CB2800072BF7E700207047B340003F08B500F037
:10CB38005DFF014B188008BD9ADC0020024B188865
:10CB4800421C1A80704700BF9ADC00202DE9F84F7C
:10CB580080460C4600AF002965D0D1E90012E946AD
:10CB68008AB0A3686D464FF0050A2E463148C5E9DC
:10CB78000723C5E9050146F810AF002332464FF4F4
:10CB880021512D48FFF7DAFCD4E90312CD46636939
:10CB9800AD462A48C5E90723C5E90501C5F810A02F
:10CBA800002332464FF421512348FFF7C7FCCD46F6
:10CBB800E3690121224A20480CF0E9FE26460025B7
:10CBC8004FF00A0ADFF884B0E946D6E908E0D6E96A
:10CBD8000A138EB06A46C2F81CE005F1010EC2E9DC
:10CBE80008E0A81CC2E90A01E91CC2E905B5C2E9C6
:10CBF8000C1342F810AF002345F240010E480435EB
:10CC0800FFF79CFC102DCD4606F11006DCD1236EF3
:10CC180001210C4A08480CF0BAFEA36901210A4A0E
:10CC280005480CF0B4FE2146404608F025FCBD46F8
:10CC3800BDE8F88F94EF0100ACDE0100C3EF0100FE
:10CC4800F2EF010044F0010053F0010001F001008F
:10CC580030BFFFF7FDBF00BF044B99689869884251
:10CC680003D003494FF080520A60704734DC00203B
:10CC780004ED00E070B52A4C06460D4629482A49BD
:10CC88000DF079FAA36ADB0647D5264827490DF047
:10CC980072FA1120A36A1C0704D5224824490DF012
:10CCA8006AFA12201E4CA36A990712D521491D4819
:10CCB8000DF061FA636BA26A120609D501211E4ABA
:10CCC80018480CF064FE1EB1A36A23F08003A36227
:10CCD8001320134CA36ADE0704D5124817490DF038
:10CCE8004AFA1420A36A9C0604D50E4814490DF08C
:10CCF80042FA15200A4B9A6AD10658BF9A6A9A6A6C
:10CD0800920642BF5A6A22F400525A629A6A42F064
:10CD1800FF029A6200232B7070BD1020BAE700BF93
:10CD280000ED00E0ACDE010081F0010097F00100A9
:10CD3800CAF00100DDF00100F5F001000BF101007F
:10CD48002AF1010010B5244C244925480DF013FAA6
:10CD5800A36A99013ED5224822490DF00CFA1E20FB
:10CD6800A36ADA0104D51E481F490DF004FA1F20F2
:10CD7800194CA36ADB0204D519481C490DF0FBF9CC
:10CD88000220A36A1C0304D5154819490DF0F3F9CC
:10CD98002120114CA36A590304D5114815490DF0F7
:10CDA800EAF92220A36A9A0304D50D4812490DF026
:10CDB800E2F92320084CA36ADB0304D508480F498D
:10CDC8000DF0D9F92420A36A6FEA03436FEA1343ED
:10CDD800A36210BD1D20C3E700ED00E059F101007A
:10CDE800ACDE010071F1010084F101009EF1010047
:10CDF800C8F10100E6F101000BF2010025F2010083
:10CE080070B5294C06460D46284829490DF0B3F956
:10CE1800A36AD9043CD5254826490DF0ACF917205A
:10CE2800A36A1A0504D5214823490DF0A4F918204E
:10CE38001D4CA36A9B0512D51C4820490DF09BF98F
:10CE4800A36BA26A100409D501211D4A17480CF0EA
:10CE58009EFD1EB1A36A23F40043A3621920124C5D
:10CE6800A36A590504D5114816490DF084F91A200A
:10CE7800A36ADA050ED50D4813490DF07CF91B207D
:10CE8800094A936A43F47F43936200232B7070BD71
:10CE98001620C5E7A36A9B04F2D504480B490DF098
:10CEA8006AF91C20ECE700BF00ED00E0ACDE0100F1
:10CEB80050F2010066F20100CAF0010077F20100A9
:10CEC80090F20100A5F20100C0F201002AF1010070
:10CED8002DE9F0479CB0664B0546D3F804A0894677
:10CEE8001446002600AFCAF3080886F31188BFF37A
:10CEF8006F8F02F07F43B3F17F4F1DD1D3071BD44F
:10CF0800500603D4110708D4012608E059495A48A5
:10CF18000DF031F914F0040400D04D46002600232A
:10CF2800FB71A8F10303092B7FD8DFE803F007762C
:10CF380079737E7E7E7E7E7C3546F0E74F494E488B
:10CF48000DF019F900234A4CFB71E36A9A0705D5DD
:10CF58004B4949480DF00FF9002429E0E36A002BFA
:10CF680001DA4849F5E7E36A5B00F5D546494248E6
:10CF78000DF001F96369AA6943F480736361BFF333
:10CF88004F8FBFF36F8F636932F8022C23F48073DD
:10CF98006361BFF34F8FBFF36F8F4DF602739A42F1
:10CFA80022D12B680121394A33480CF0F0FC2C6857
:10CFB800FB79ABB96822294607F108000FF0CEFFCC
:10CFC8007B6A002E4ED0C3F3080222B96FEA5323BE
:10CFD8006FEA43237B62204607F10801FFF7B6FD9D
:10CFE8007037BD46BDE8F087A36ADBB22BB10120DC
:10CFF800F91DFFF73FFE0446DAE7A36A13F47F4FF3
:10D0080004D00120F91DFFF7FBFEF4E7A36AB3F58E
:10D01800803FA1D3FFF796FEEDE70020F91DE8E772
:10D028000020F91DEFE71A4993E71A4A6C461AF4EB
:10D03800F87F8AB0184B18BF13466A461749C2E9E9
:10D048000513A8F11003D3614FF400731384144B34
:10D0580042F8103F00234FF411510748FFF76EFACA
:10D06800A54679E723F4FF7323F00103B2E700BF75
:10D0780000ED00E006F30100ACDE010029F3010039
:10D0880040F3010061F301006FF301008EF301002A
:10D09800AAF30100EDF20100D8F20100CEF301007D
:10D0A80004000001044B5A6942F010025A615A699F
:10D0B80042F480625A61704700ED00E0EFF30880A7
:10D0C800EFF3098101B57246FFF702FF01BD00BF0A
:10D0D800002080F31488BFF36F8F002080F30A8844
:10D0E80080F30B8800F080FC00200E490860BFF335
:10D0F8004F8F0D4880F3088800F03EF8202080F319
:10D1080011880A484FF40061401880F30988EFF34A
:10D1180014800221084380F31488BFF36F8F00F056
:10D128001FF9000094ED00E010150120D0EB00205D
:10D13800BFF34F8F0549064BCA6802F4E0621343F8
:10D14800CB60BFF34F8F00BFFDE700BF00ED00E0ED
:10D158000400FA05002318460649D1F89020C2F3C6
:10D168000722934200DB7047C1F89830C1F8A0004D
:10D178000133F6E700ED00E010B572B6002484F341
:10D188001388FFF7E7FF23464FF0FF300C4A03F1FF
:10D1980020010133102B42F82100F8D100234FF071
:10D1A800FF30074A03F160010133102B42F82100D8
:10D1B800F8D162B6BFF34F8FBFF36F8F10BD00BFBA
:10D1C80000E100E0084B9B6883420BD1EFF3058335
:10D1D80043B1064B5A6842F080525A605A6A22F4A8
:10D1E80000425A620FF021BD34DC002000ED00E05F
:10D1F8006FF00A01084A9368D967084998674B682D
:10D2080043F080534B60002383F31188BFF36F8F83
:10D218009368D86F704700BF34DC002000ED00E051
:10D2280022498A6882F8C1E04FF030001044EFF3D9
:10D23800098C80E8F01F1EF0100F03D102F1800066
:10D2480080EC108A202080F31288BFF36F8F184F6C
:10D258004FF000668A698A603E6092F9C1E0906F7B
:10D268000023936780F311881EF0100F03D000236A
:10D27800E1EE103A03E002F1800090EC108AEFF33F
:10D28800148323F0040383F31488BFF36F8F02F130
:10D29800300090E8F01F8CF3098802F1000004B513
:10D2A8000CF09FFFBDE804407047000034DC00200C
:10D2B80004ED00E01EF0040F0CBFEFF30880EFF35D
:10D2C8000980816911F8021C0229FFD001B50CF010
:10D2D80047FF01BD40B2002807DB01234109034A8B
:10D2E80000F01F00834042F82130704700E100E061
:10D2F80040B200280CDB01220649430900F01F0058
:10D308008240203341F82320BFF34F8FBFF36F8F44
:10D31800704700BF00E100E0054B420953F82220A6
:10D32800012300F01F0003FA00F01040704700BF0F
:10D3380000E100E040B2002801F10101ACBF00F1BA
:10D348006040064B4FEA4111C9B2ABBF00F56140DE
:10D3580000F00F0080F800131954704714ED00E036
:10D36800144A08B5144B22F07F029A60BFF34F8F1E
:10D37800BFF36F8FD3F8882022F47002C3F8882097
:10D38800D3F8882042F4A002C3F888204FF0404226
:10D39800C3F83422BFF34F8FBFF36F8F0023E1EE42
:10D3A800103A08F01DF908F0FFFF00F08FF808F0B8
:10D3B80061F900BF0080000000ED00E042F8203C69
:10D3C800009B0D4942F81C3C019B21F0010142F8E9
:10D3D800183C029B42F8081C42F8143C4FF080733A
:10D3E80042F8043C002383674FF43C43203A02652B
:10D3F800C0F8C030704700BFC18B0100114B9B685B
:10D4080083421BD1EFF30580C0B94FF02002EFF340
:10D41800118182F31288BFF36F8F1A7B22F0020208
:10D428001A73EFF3148323F0040383F31488BFF310
:10D438006F8F81F31188BFF36F8F70476FF01500FE
:10D44800704700BF34DC00200023E1EE103AEFF310
:10D45800148323F0040383F31488BFF36F8FBFF39F
:10D468006F8F094B9860836E83F30B88104681F3A6
:10D478000988002163B681F31188BFF36F8F0022FA
:10D4880000230BF099FB00BF34DC00200149102277
:10D498000A60704710ED00E072B6404080F31188D2
:10D4A800BFF36F8FBFF34F8F30BF62B6BFF36F8F7D
:10D4B800704700BF72B6494081F31188BFF34F8FA0
:10D4C80020BF80F3118862B6704700BF0023202177
:10D4D8000348C2180133412B82F80013F9D1704771
:10D4E80000E100E001B5EFF30580A0F110004FEA7C
:10D4F800C0000449014409C99847BDE801400249F0
:10D5080008470000FCDB010061CC00001FB5094C96
:10D51800094A23460121094800F00AF90023039328
:10D52800074B0121E41A01A80193029400F00AF9BB
:10D5380004B010BD0000042080C50020A0E0010058
:10D5480088CB002010B50C7A0B6804F01F0223F07A
:10D558001F031A43CB68640923F01F03054943EAF4
:10D56800440343F00103C1F89800C1F89C20C1F8B6
:10D57800A03010BD00ED00E00F2810B508D901213A
:10D588000346054A05480CF002FA6FF0150010BD75
:10D59800FFF7D8FFFBE700BFE5F301008CDE0100D1
:10D5A8002DE9F04F8946144606464FF00008514DC4
:10D5B80085B0C84527DAD6F804A0BAF1000F44D0E0
:10D5C800BAF11F0F17D91AF01F0F14D1D6F800B0EF
:10D5D8001BF01F0F0FD158460CF007FE07460AEB49
:10D5E8000B0001380CF001FE874210D06FF01507D0
:10D5F800414A3B4601E04346404A012140480CF07D
:10D60800C6F96FF01504204605B0BDE8F08F17F194
:10D61800160FEDD0BC42EBDDC5F89870D5F89C101C
:10D62800C5F89870D5F8A03021F01F0143F01F0B02
:10D63800D6E900321A44994202F1FF3A1DD1D34586
:10D6480007D13146F8B20CF0D9FD08F101080C36C3
:10D65800AFE73146C5F89870D5F89C3022F01F0224
:10D6680003F01F031343C5F89C30E0B20CF0C6FD6D
:10D6780010F1160FC5D0441CE7E7C5F89870D5F827
:10D68800A020013B23F01F0302F01F021343D345E0
:10D698003146E0B2C5F8A030E8D00CF0AFFD10F18B
:10D6A800160FAED0C5F89870D5F89C209DF80830B4
:10D6B8000BF1FF3B62F304038DF80830D5F8A03076
:10D6C8009DF808205B0863F347128DF80820D6E917
:10D6D80000321344009323F01F035B44A3EB0A03B7
:10D6E800013023F01F036946C0B20393FFF744FFDC
:10D6F800BEE700BF00ED00E02EF401000BF40100CE
:10D708008CDE01000522044BC3F89420BFF34F8F31
:10D71800BFF36F8F704700BF00ED00E0BFF35F8F6E
:10D728000022024BC3F89420704700BF00ED00E0D0
:10D7380010B5034C2278FFF733FF207010BD00BFEF
:10D7480076E200202DE9F74F294D8A4606464FF02C
:10D758000008AB46274FD0451BDAD6F80490B9F13C
:10D76800000F3FD03168084601910CF03EFD019949
:10D77800044609EB010001380CF037FD84424FF0F4
:10D7880014021D4B08D002FB08F36FF015024BF88A
:10D79800032003B0BDE8F08F14F1160F2C60F8D009
:10D7A8001978A142F5DD02FB08B0C7F89840C7F820
:10D7B8009840D7F89C4000F10801007B64F304000E
:10D7C8000871D7F8A0000C79400860F347140C7171
:10D7D800D7F89C1021F01F016960D7F8A01021F03C
:10D7E8001F01296108F1010814350C36B3E700BFA1
:10D7F80094D4002000ED00E076E20020F0B53A4D28
:10D8080087B02C68102C6CD80020FFF787FF374BA7
:10D81800374AC3F8C02084420DD1364D01A82C7078
:10D82800FFF756F900240646334FA6420AD1FFF700
:10D8380069FF002053E0696801EB0011FFF782FEE1
:10D848000130E8E70199200101EB0413DA683A4056
:10D85800B2F5001F22D0B2F5800F2CD0B2F5801F90
:10D8680036D15A689B680958013B22F01F000344CF
:10D878000120844623F01F0340EA4C10CDE9022121
:10D888008DF8100002A928780593FFF775FE002887
:10D8980023DB2B78013401332B70C6E75A689B6869
:10D8A8000958013B22F01F0003444FF0020C0120ED
:10D8B80023F01F03E0E75A689B680958013B22F0F0
:10D8C8001F0003444FF0000C062023F01F03D3E78A
:10D8D80001210A4A0A480CF051F86FF0150007B008
:10D8E800F0BD4FF0FF30FAE7ACE0010000ED00E0DA
:10D8F800AAFF440076E200200000F0FF51F4010086
:10D908008CDE0100014B1860704700BFA4C50020E1
:10D91800F8B506460D460024064FAC4208DA3B68C7
:10D9280098470A28305504F1010401D00D28F4D194
:10D938002046F8BDA0C50020F8B50D46094F461E83
:10D94800C0F10104A3199D4201DC2846F8BD737893
:10D958000A2B02D10D203B6898473B6816F8010F47
:10D968009847EFE7A4C5002010B5074C2368C218F4
:10D978000648C0F1005101F580218A4236BF226075
:10D988004FF0FF30C01810BDA8D400209029012006
:10D9980008B51D210448FFF7CFFF404080F31188E8
:10D9A8004FF0030002DF00BF82F4010008B504480D
:10D9B8000BF0E8F8404080F311884FF0040002DFD4
:10D9C800A0F401000122024B0020C3F84025704753
:10D9D8000090034020B1034B800143F00103184736
:10D9E800704700BF20DF010004F08ABC07B504229D
:10D9F80007480DEB020183681B689847002802DA84
:10DA08000CF08AFF0190019803B05DF804FB00BF99
:10DA1800C0DB01002DE9F04105460E461746104CC3
:10DA2800DFF84080444507D30CF031FC6A230360DB
:10DA38004FF0FF30BDE8F0812368AB4200D063B9F6
:10DA48003A4631462846A368984730B13A463146A7
:10DA58002846E368BDE8F04118471034E2E700BF04
:10DA680004DE010014DE0100014B1860704700BF9E
:10DA7800ACD4002010B4034C24682468A4465DF894
:10DA8800044B6047ACD40020014B1B685B68184707
:10DA9800ACD400202DE9FF414FF0FF324FF0FF33A7
:10DAA80023480CF0EBFC234C234F244EDFF89880DE
:10DAB800BC4205D31E4804B0BDE8F0410CF0FCBCE4
:10DAC80023681B689D6865B12B6853B104F1100089
